:020000040800F2
:100000000816002005030008695800085957000821
:1000100065580008452300081D6B0008000000001B
:100020000000000000000000000000001D5E00084D
:100030006D230008000000006D580008215E0008D4
:100040001F0300081F0300081F0300081F03000808
:100050001F0300081F0300081F0300081F030008F8
:100060001F030008712300081F0300081F03000876
:100070001F0300081F030008492300085523000838
:10008000612300081F0300081F0300081F03000866
:100090001F0300081F0300081F0300081F030008B8
:1000A000395E00081F0300081F0300081F03000833
:1000B000455E000800000000000000001F0300086B
:1000C0001F03000800000000000000001F030008DC
:1000D00000000000116B00081F0300080000000072
:1000E0001F0300081F0300080000000000000000BC
:1000F0000000000000000000000000000000000000
:100100000000000000000000000000001F030008C5
:1001100000000000000000001F0300081F0300088B
:100120001F0300081F0300081F0300081F03000827
:100130001F03000800000000000000000000000095
:100140001F0300081F0300081F0300081F03000807
:100150001F0300081F0300081F0300081F030008F7
:100160001F0300081F0300081F0300080000000011
:100170001F0300081F03000800000000000000002B
:100180001F0300081F0300081F03000800F002F807
:1001900000F0A8F814A696E8000CB244B344DA457F
:1001A00001D100F09FF8BAE80F000FA696E83000E2
:1001B000A5EB040504EB0607AAEB0704A7F101076A
:1001C0004FEA15154FEA3414A4F10104AC4201D3EF
:1001D00000F088F813F0010F18BFFB1A43F0010379
:1001E00000F001F8DBE71847EC7E00000C7F000010
:1001F000103A24BF78C878C1FAD8520724BF30C853
:1002000030C144BF04680C607047000070470000B4
:100210000023002400250026103A28BF78C1FBD80F
:10022000520728BF30C148BF0B6070476E2900F0ED
:100230008C84702900F0D585662907F0D285652960
:1002400007F0CF85672907F0CC85612907F0CB85BA
:1002500003681B0A28BF41F08001692900F0308142
:10026000642900F02D81752900F02A816F2900F0A2
:100270006385782900F0A185E92900F0FD84E4294F
:1002800000F0FA84F52900F0F784EF2900F060858A
:10029000F82900F0A0850368DB0928BF41F0800140
:1002A000632901F03482732901F03982E32901F0D6
:1002B0004482F32901F04982002070471FB507F0FE
:1002C00083FD00F07FFB04000020002107F050FDBB
:1002D000401C60600020002107F060FDE0601FBD51
:1002E00010B510BD01F067FA1146FFF7E7FF06F001
:1002F0006DFD01F037FB03B4FFF7F2FF03BC01F023
:100300003BFB00000948804709480047FEE7FEE73D
:10031000FEE7FEE7FEE7FEE7FEE7FEE7FEE7FEE7B5
:1003200004480549054A064B70470000255E000851
:100330008D01000808100020081600200812002077
:100340000812002010B500F03DFB001D10BD00BFDD
:10035000217A000053EA020C00F069802DE9F04B8D
:100360004FF00006002B1FBFB3FA83F503FA05F424
:1003700024FA05F65E4012BF1643B2FA82F502FA7D
:1003800005F4C5F120051EBF22FA05FC44EA0C0461
:10039000203556EA044C4FEA144418BF641C4FF051
:1003A00000084FF00009904271EB030C39D300298B
:1003B00019BFB1FA81F701FA07F6B0FA80F700FA2F
:1003C00007F6C7F120071EBF20FA07FC46EA0C0615
:1003D0002037B6FBF4FCA7EB0507103F07F01F0B17
:1003E000CBF120062CFA06F60CFA0BFB44BFB34601
:1003F0000026202FA4BF5E464FF0000B5BEA060CE0
:1004000008BF4FF0010B19EB0B0948EB0608ABFBDB
:10041000027C06FB02CC0BFB03CCC01B71EB0C0176
:10042000C1E70B46024641464846BDE8F08B13B58E
:10043000084318BF4FF0FF300146AFF30080BDE81E
:100440001C4070477CB51D4616460C00009007D036
:100450004142A14202D32044401E01E04FF0FF3050
:10046000064B7B442A4669460190304600F087FBE4
:10047000002C02D0009A002111707CBD3F070000C3
:100480000FB41CB50C0007AA009007D04142A1424E
:1004900002D32044401E01E04FF0FF30074B7B4465
:1004A00069460190069800F06AFB0021002C01D0FB
:1004B000009A11701CBC5DF814FB000003070000DB
:1004C0002DE9F0410646002410687529314616A52D
:1004D00010D000F0A6FA002802DA404213A507E087
:1004E00031688A0701D512A502E0490704D511A594
:1004F000012401E000F09EFA00210A2206F12407FF
:1005000009E0B0FBF2FCB0FBF2F302FB1C00303060
:1005100078541846491C0028F3D123462A46304611
:10052000BDE8F04100F0B8BA000000002D00000066
:100530002B000000200000002DE9F05F89460446F2
:100540004FF0000ADFF874B1FB44C0F820A0204649
:10055000E1688847002874D0252806D0D4E9012115
:100560009047206A401C2062F1E700265F46204643
:10057000E16888472028054607DB312D05D2781928
:1005800010F8200C08B10643F1E7B00701D526F0BA
:100590000406C4F81CA00027C4F818A02A2D09D00E
:1005A000284607F0DDFB38B304EB8708303DC8F878
:1005B000185019E059F8041B204604EB870291619A
:1005C000E1688847012F054618D1E069002820DA44
:1005D00026F020061DE0D8F8180000EB800005EB9F
:1005E00040003038C8F818002046E16888470546C2
:1005F00007F0B6FB0028EED1012F0AD02E2D08D12E
:100600002046E16888477F1C0546022F46F02006F9
:10061000C4DBA069002803DA404246F00106A0616D
:10062000F00701D026F010066C2D0BD0682D09D0F4
:100630004C2D39D06A2D35D0742D35D07A2D33D04C
:1006400016E038E0E1682F4620468847B842054664
:1006500009D16C2F26D04FF48060E1680643204614
:100660008847054604E06C2F1AD04FF4807006438B
:100670000DB3A5F14100192802D8203546F40066D3
:100680004A462946204626604E46FFF7CFFD80B1F8
:1006900001280BD0F61D26F0070000F1080956E7E7
:1006A0004020E4E78020D8E70020D6E706F10409DF
:1006B0004DE7284652E7206A00F002B89E78000015
:1006C00030BCBDE8C09F2DE9F05F93460F468046E1
:1006D0000446002600F07AF9D0F80090824614F81B
:1006E000015B2DB1FFF72EFE0068405DC007F6D11B
:1006F0002B2D02D02D2D1AD0641E0021CAF8001017
:100700005A463946204600F077FB014627B1386843
:10071000A04201D1C7F80080DAF80000022809D011
:10072000CAF80090700505D5484200F005B846F4B7
:100730008066E2E70846F8E730BCBDE8C09F10B528
:10074000431C02E010F8011B71B18107FAD14FF090
:10075000013202C88C1A8C4314EAC211F9D0C01AB3
:100760000A0603D0C01E10BDC01A10BD0A0401D075
:10077000801E10BD0902FCD0401E10BD40EA0103DE
:1007800070B59B072ED14FF00136042A2AD308C832
:1007900010C99D1B9D43121F15EAC61517D0D8B26C
:1007A000E1B2401A50EA056110D198B2A1B2401AE4
:1007B00050EA05410AD123F07F4024F07F41401ADE
:1007C00050EA052102D1180EA0EB146070BDA342BF
:1007D000DBD018BA21BA884201D9012070BD4FF090
:1007E000FF3070BD0AB9002070BD10F8013B11F850
:1007F000014B63B1A3420AD1521E08D010F8013B4D
:1008000011F8014B1BB1A34201D1521EEDD1181BAF
:1008100070BD032A40F2308010F0030C00F0158008
:1008200011F8013BBCF1020F624498BF11F801CBF3
:1008300000F8013B38BF11F8013BA2F1040298BF58
:1008400000F801CB38BF00F8013B11F0030300F0C2
:100850002583083AC0F0088051F8043B083A51F863
:1008600004CBA0E80810F5E7121D5CBF51F8043B6B
:1008700040F8043BAFF30080D20724BF11F8013BDE
:1008800011F801CB48BF11F8012B24BF00F8013B40
:1008900000F801CB48BF00F8012B70474FF0000271
:1008A00000B5134694469646203922BFA0E80C5066
:1008B000A0E80C50B1F12001BFF4F7AF090728BF41
:1008C000A0E80C5048BF0CC05DF804EB890028BFBD
:1008D00040F8042B08BF704748BF20F8022B11F0E6
:1008E000804F18BF00F8012B704710B5044610F078
:1008F000030F08BF11F0030F40F015804FF0013EC9
:10090000121FC0F20E8051F8043BA3EB0E0C2CEA30
:10091000030C1CEACE1C08BF40F8043BF0D0A1F148
:10092000040102F10402521E08DB11F8013B00F839
:10093000013B002BF7D1114600F0E2FA204610BD32
:1009400030B44FF0013C50F8042B51F8043BCCFA82
:1009500052F4D51A20D1FCB950F8042B51F8043BBD
:10096000CCFA52F4D51A17D1B4B950F8042B51F877
:10097000043BCCFA52F4D51A0ED16CB950F8042BC2
:1009800051F8043BCCFA52F4D51A05D1002CDAD038
:1009900030BC4FF00000704729BAB1FA81F111F074
:1009A0001801D1F120008440F2D1CA40CB4012F0AE
:1009B000FF0213F0FF0330BCD01A70477047704736
:1009C000704700000048704748000020004870470A
:1009D0002800002070B5044685690068C10601D56D
:1009E000302600E02026C00707D070BDD4E90121E1
:1009F00030469047206A401C20626D1EF6D570BDBF
:100A000070B5044685690078C00707D170BDD4E988
:100A1000012120209047206A401C20626D1EF6D5DF
:100A200070BD09684A0501D540B27047C905FCD5BB
:100A300000B2704709684A0501D5C0B27047C905C0
:100A4000FCD580B2704770B50C460546012A05D02A
:100A50002878800600D5EA69002302E0012305E03A
:100A60005B1C934202D2E05C0028F9D1A869E61829
:100A7000C01AA861286A184428622846FFF7AAFF0E
:100A800004E0D5E9012114F8010B9047B442F8D3F2
:100A90002846FFF7B5FF70BD2DE9F0470D46994692
:100AA0009246044600F124080168880604D5E069EE
:100AB00021F01001216000E00120A84201DD471B68
:100AC00000E00027A1697A1902EB0900081AA06169
:100AD0002078C00602D42046FFF77CFF002608E0FD
:100AE000D4E901211AF806009047206A401C761CC0
:100AF00020624E45F4DB2078C0060AD52046FFF779
:100B000069FF06E0D4E9012130209047206A401CAB
:100B10002062381EA7F10107F4DC07E0D4E90121C7
:100B200018F805009047206A401C2062281EA5F195
:100B30000105F3DC2046FFF763FF2078000602D5AD
:100B40000220BDE8F0870120FBE711680268006A17
:100B5000530501D508700AE0D30501D5088006E0E9
:100B6000130603D5C217C1E9000200E008600120A6
:100B70007047000001694A1C02610878704700B59F
:100B80008FB0CDE901310021059105497944CDE9C6
:100B9000031011466846FFF7CFFC0FB000BD000000
:100BA000E5FFFFFFD1E900239A4202D2531C0B60FC
:100BB000107070472DE9FF5F15468A460446DFF83E
:100BC000AC80F8440027D8E900103E46CDE900107B
:100BD00010E03AF816106A4602A800F0C8FD411C61
:100BE00007D02178890603D5E269391891420DD8DA
:100BF0000744761C2078800602D5E069B84205DDFE
:100C0000AE42E6DB3AF816000028E2D1A069C01B2C
:100C1000A0612046FFF7DEFED8E90010CDE9001004
:100C2000002017E03AF818106A4602A800F09FFD6D
:100C3000B0F1FF3F81460BD000250DF1080B05E018
:100C4000D4E901211BF8050090476D1C4D45F7D3F1
:100C500008F10100B0428046E4DB206A384420629B
:100C60002046FFF7CDFE00F003B80000367200000A
:100C70003FBCBDE8C09F00002DE9F0418046D21D79
:100C800022F007020025D2E90002F52915A614D0AA
:100C9000011E72F1000106DA0023D0EB030063EBC2
:100CA000020211A608E0D8F800108B0701D50FA6A4
:100CB00002E0490701D50EA601251146002408F1DE
:100CC000240704E000F042F930323A55641C50EA3F
:100CD0000102F7D12B46324621464046BDE8F0419D
:100CE000FFF7DABE000000002D0000002B0000001E
:100CF0002000000030B4002100F1240408E002F0DC
:100D00000705D208303542EA4372DB086554491CB6
:100D100052EA0305F3D10468002310A2250708D581
:100D200004F020040C4304D0C46901230CA2641E07
:100D3000C46130BCFFF7B0BE10B504462146106850
:100D4000FFF778FE02462046BDE810400023D1E7B9
:100D5000D21D22F00701D1E90023CBE700000000FB
:100D600030000000F0B40D460188090502D5214C81
:100D70007C4402E01F4C7C440E34002100F1240628
:100D800008E002F00F071209E75D42EA03721B094F
:100D90007754491C52EA0307F3D102780023120763
:100DA00004D5702D06D009B1022311342246F0BCBF
:100DB000FFF772BE01231034F8E770B504460D4604
:100DC00021461068FFF736FE024629462046BDE858
:100DD00070400023C6E7D21D22F00703D3E90023A9
:100DE000C0E70368126843F0200303600823C3616F
:100DF0000023B7E7907000002DE9F05F82461546AA
:100E00008B4600270AF10104B9460078302801D04A
:100E10009DB113E014F8010B0127782803D058285E
:100E200001D045B10AE00DB1102D07D1002714F80B
:100E3000010B102502E0082500E00A250026B04637
:100E40000EE005FB080005FB06F101271FFA80F8FC
:100E500001EB1046B6F5803F00D3B94614F8010BFC
:100E6000294600F076FC0028EBDABBF1000F05D034
:100E70000FB1641E00E05446CBF80040B9F1000FFA
:100E800006D0FFF7A3FD02210160C81E00F003B8E1
:100E900048EA0640FAE730BCBDE8C09F10B5203AEA
:100EA000C0F00B80B1E81850A0E81850B1E8185015
:100EB000A0E81850203ABFF4F5AF5FEA027C24BFE7
:100EC000B1E81850A0E8185044BF18C918C0BDE8D0
:100ED00010405FEA827C24BF51F8043B40F8043B99
:100EE00008BF7047D20728BF31F8023B48BF11F84E
:100EF000012B28BF20F8023B48BF00F8012B7047A8
:100F00004FF000020429C0F0128010F0030C3FF4EF
:100F1000C7ACCCF1040CBCF1020F18BF00F8012BD8
:100F2000A8BF20F8022BA1EB0C01FFF7B9BC5FEAC8
:100F3000C17C24BF00F8012B00F8012B48BF00F84A
:100F4000012B7047004870472800002030B5B0F1F1
:100F50000A0271F100034FEA900E4EEA817EB0EB77
:100F60000E0061EB91014FEA101E4EEA017E10EB7C
:100F70000E0041EB11114FEA102E4EEA016E10EBFC
:100F80000E0041EB11214FEA104E4EEA014E10EBDC
:100F90000E0041EB1141401841F100014FEAD00031
:100FA00040EA41704FEAD1014FEA810444EA90746B
:100FB00010EB800544EB01046D1944EB0404521B53
:100FC000A3414FF0000348BF0A3200D530BD401C9A
:100FD00041F1000130BD2DE9FF4F0C461E464FF098
:100FE000FF378BB0D2E90001DDF860800A908A46B5
:100FF000C1F30A5505B93D46002108464FF00000EF
:10100000BAF1000F00F4400005DA00EB80004FF465
:10101000400101EA50004FEA9059B9F1010F00DD9B
:10102000B9460A9850EA4A000ED044F61050A5F28C
:10103000FF3545432F14B8F1000F1ED07542291E0D
:101040001EDDC9F100021CE0B8F1010F4FF00000F5
:1010500001D0302103E0F24305E02154401CB042AE
:10106000FBDB30460022002121540B99C1F8088097
:10107000C1E900200FB000F0BCB9BD1B6D1CDEE75C
:101080004A4600DA694206A800F0FAFB06AB93E88C
:10109000070003AB83E8070050460A9906F07FFA81
:1010A0008DE80700A0F500501F3800900398002D30
:1010B0000ADD42F21F014A460844002303A90390B7
:1010C000684606F0E9FC09E0A0F500504A461F38E2
:1010D000002303A90390684606F0F3FC8DE807009F
:1010E0000004000C03D04FF0FF30410800E0104630
:1010F000B8F1000F03D00022009215461EE0751EC5
:1011000005D4FFF723FF303262556D1EF9D5B34683
:101110000122084302D000227F1C04E020783028FE
:1011200001D100227F1E002A099784D01DE0112DD5
:1011300007DAFFF70BFF303262556D1C50EA0102EF
:10114000F5D1084302D00098C8B10EE00021681E16
:1011500005E0235C625C63542254401E491C8142BA
:10116000F7DBAB46A81B401E0990002004F80B00DB
:101170000B98099AC0F80880C0E9002B7AE711267D
:101180004FF0000857E72DE9F04F88460446D21D7E
:1011900022F0070191B0D1E90001CDE90A0106F082
:1011A000C7FD02460B98C00F01D02D2007E0206834
:1011B000810701D52B2002E0202101EAC000032A8B
:1011C000099001D0072A05DB03464146204600F07E
:1011D00017FB0BE12078800601D5E06900E00620CE
:1011E000B8F1650F814606D0B8F1660F18D0B8F196
:1011F000670F70D131E00020B9F1110F009001DBD1
:10120000112301E009F101030AAA01A90CA8FFF7C3
:10121000E2FEDDE90C70002609F10105834647E096
:1012200001204B4600904FF000470AAA01A90CA8E4
:10123000FFF7D1FEDDE90DB00C995D46002610B92F
:1012400009F101000D18B9EB050003D4C0F1FF3618
:1012500009F10105A5EB09002BE0B9F1010F01DA55
:101260004FF001090020B9F1110F0090484601DD4F
:10127000112300E003460AAA01A90CA8FFF7ABFE60
:10128000DDE90C704D4600268346207800070AD41D
:10129000AB4500DA5D4601A8012D04DD411911F8C6
:1012A000011C302907D04F4502DA17F1040F04DA88
:1012B000012082460FE06D1EEEE7002F02DCED1BE1
:1012C0003E4403E0781CA84200DD7D1CB81B00F101
:1012D000010A4FF000472078000703D4AA4501DB3C
:1012E0004FF0FF3A0021B7F1004F0DF143088DF8A0
:1012F000431024D002202B23002F01DA7F422D231C
:101300000A21021EA0F1010000DC5FB197FBF1FC95
:1013100097FBF1F201FB1C7C17460CF1300C08F82E
:1013200001CDEEE7A8F1010003702188090501D580
:10133000452100E06521A0F1010800F8011C099891
:101340000FA9A1EB0807FF1D00B10120411901EB16
:10135000EA70A1693844081A401EA0612078C006CE
:1013600002D42046FFF736FB099828B1D4E90121C1
:101370009047206A401C20622078C00622D5204673
:10138000FFF728FB1EE0002E04DBB34502DD01A8B9
:10139000805D00E03020D4E901219047206A401CA4
:1013A0002062761CAAF101005FEA000A0AD1FFF769
:1013B00009FBC0680168405CD4E901219047206ABC
:1013C000401C2062281EA5F10105DCDC07E0D4E901
:1013D000012118F8010B9047206A401C2062381E3A
:1013E000A7F10107F3DC2046FFF70AFB032011B049
:1013F00041E630BCBDE8C08F2DE9F04F04460D46F4
:10140000D21D22F0070089B0D0E90097484639463E
:1014100006F08EFC0246F80F01D02D2307E020686D
:10142000810701D52B2302E0202101EAC0038DF8BA
:1014300020300BB1012000E00020032A824601D0B9
:10144000072A04DB2946204600F0DAF93FE120783C
:10145000800601D40D2500E0E569C7F30A560D2D7D
:1014600049DA00214FEA175B08464FF00000002FD1
:1014700000F4400007DA00EB80004FF4400100EB7D
:10148000D07001EA60008115012901DD4FF0FF31C4
:1014900000224FEA850CBCF1180F06D31346ACF1BD
:1014A00018004FF08052C24003E04FF4801323FA3B
:1014B0000CF30CF10C0CBCF1200F04D3ACF1200C9C
:1014C00009FA0CF001E007FA0CF000294FF000488F
:1014D00001DD18B90FE00ED140450CD319EB02091C
:1014E0005F4121B9404502D19F4329EA0209BBEB84
:1014F000175F00D0761C2088000502D57B48784411
:1015000002E07A487844193808AA302302F80A30F1
:10151000037C0AF10101002E0AF1020A53546A46C3
:1015200002DC4FF0300101E04FF031014FF00108D3
:101530008DF8001002D0A6F2FF3603E059EA470109
:1015400000D06B4E002D02DC2178090704D54FF046
:1015500002082E218DF80110C44600210BE0C7F3CC
:1015600003433F01C35C491C6D1E02F80830052986
:1015700008F1010801DA002DF1DC00210CE000EB9C
:101580001973491C1B786D1E082902F808304FEAB0
:10159000091908F1010801DA002DF0DC21688B0639
:1015A00002D516E0A8F10108E04505DD02EB0803CD
:1015B00013F8013C302BF5D0B8F1000F09DD02EB38
:1015C000080313F8013C2E2B03D1090701D4A8F11D
:1015D0000108002D05DD3E2102F808106D1E08F1FE
:1015E0000108407C002E02F8080008F1010804DA26
:1015F0002D20764202F8080002E02B2002F80800B5
:101600000A214FF47A70864208F101080BDB96FB41
:10161000F0F3303302F8083096FBF0F308F10108DC
:1016200000FB136601E0642E0CDB642096FBF0F3F4
:10163000303302F8083096FBF0F308F1010800FBA4
:10164000136601E00A2E06DB96FBF1F0303002F85B
:10165000080008F1010896FBF1F001FB1060303042
:1016600002F80800A16908F1010808EB050202EB85
:101670000A00081AA0612078C00602D42046FFF7AD
:10168000A9F9216A08AE01EB0A00206204E0D4E95E
:10169000012116F8010B9047BAF1010AF7D2207820
:1016A000C00602D52046FFF795F96E4609E016F808
:1016B000010B3E280FD0D4E901219047206A401C3D
:1016C0002062B8F10108F2D22046FFF799F909B07B
:1016D000032000F00FB8206A2844206203E0D4E918
:1016E0000121302090476D1EEBD3F8E73D690000E3
:1016F00002FCFFFF30BCBDE8C08F10B5436913B1D9
:10170000AFF3008001E0FFF79EF9012010BD1278D1
:1017100000F124010A7000224A700122EDE71168ED
:101720004FF0FF32E9E710B5436913B1AFF3008022
:1017300001E0FFF73FFA012010BD128800F12401FB
:1017400082840022C2840122EDE711684FF0FF324B
:10175000E9E73A2800D2303820F02002412A01D3AC
:10176000A2F13700884201D34FF0FF3070472DE9D6
:10177000F04116460C460546FEF7E4FD036893F873
:101780000101012807D0FF2C12D8185D80B101207B
:101790002C70BDE8F081D3F807013246214603F2F0
:1017A0000713C7182846BC46BDE8F0410023604730
:1017B0004FF0FF30EDE77546FFF7C4FBAE4605007E
:1017C0006946534620F00700854618B020B5FEF75D
:1017D000A7FDBDE820404FF000064FF000074FF096
:1017E00000084FF0000BAC46ACE8C009ACE8C009FB
:1017F000ACE8C009ACE8C00921F007018D4670478C
:101800002DE9F0411F46044603260168072A01F42A
:10181000006004DB08B116A505E016A503E008B1D9
:1018200015A500E015A521F010002060A069C01EDC
:10183000A0610FB1401EA0612046FFF7CBF84FB169
:10184000D4E9012138469047206A401C2062C01C20
:10185000206206E0206AFAE7D4E9012115F8010BBD
:101860009047761EF8D22046FFF7CAF8BDE8F0810F
:101870004E414E006E616E00494E4600696E660034
:101880002DE9F047814616468AB0354878440DC8A0
:101890008DE80D0032487844801C03AC0DC884E804
:1018A0000D0041F69B300844372190FBF1F290FB8C
:1018B000F1F5A5F1800501FB12041B3C02D5644241
:1018C000012000E00020DFF898A080460027FA44BD
:1018D000AAF1BE0A0EE0E0070AD03246684607EBDE
:1018E000470101230AEB810106F0EBF88DE80700C0
:1018F00064107F1C002CEED1194F7F44AE3F19E0DD
:10190000E80715D007EB04100DF1180A90E80E0057
:101910008AE80E00C068F04201D19819089032465A
:10192000012306A903A806F0CCF803AB83E807005F
:101930006D10641C002DE3D14FF00103324669465F
:10194000B8F1000F03A802D006F0A6F801E006F0F7
:10195000B8F8C9E90001C9F808200AB0BDE8F08765
:101960004066000010B50446AFF300802046BDE895
:101970001040FEF7C0BC000001491820ABBEFEE7D6
:1019800026000200704700002DE9F04FADF5017D03
:1019900040F2C00AC2F2000ABAF81200002800F0B1
:1019A000858140F22014C2F20004257800212154E0
:1019B0004DB3FEF7C7FC006840F22014C2F20004E9
:1019C000415DC9071FD0617800291CBF415C5FEAF7
:1019D000C17113D0A17800291CBF415C5FEAC171BD
:1019E0000ED0E17800291CBF415C5FEAC17109D0CB
:1019F00014F8045F002DE3D105E000BF013402E0DC
:101A0000023400E003342046FEF799FE204400BF74
:101A10000546A04208D9FEF795FC0168284610F853
:101A2000012D895CC907F3D14FF0000985F80090BA
:101A30002578002D00F038810FF28C512046FEF7FA
:101A40007FFF002800F0F28048F2C401C0F60001D8
:101A50002046FEF775FF002800F0AE800FF27C51A3
:101A60002046FEF76DFF002800F0A6800FF27451AB
:101A70002046FEF765FF002800F0E6800FF2705167
:101A80002046FEF75DFF002800F0DE800FF268516F
:101A90002046FEF755FF002800F0D6800FF2605177
:101AA00020460922FEF76AFE002800F003810FF2AB
:101AB0005C5120460522FEF761FE002800F0FA8006
:101AC0000FF2505120460522FEF758FE002800F084
:101AD000F1800FF2485120460F22FEF74FFE0028FA
:101AE00000F00A810FF2445120460622FEF746FE1E
:101AF000002800F001810FF23C5120460622FEF73B
:101B00003DFE002800F0F8800FF230512046FEF72D
:101B100017FF002800F048810FF230512046FEF7F1
:101B20000FFF002800F040810FF224512046FEF7FD
:101B300007FF002800F038810FF2185120460C22D0
:101B4000FEF71CFE002800F04D810FF218512046D0
:101B50000822FEF713FE002800F044810FF2105116
:101B600020460822FEF70AFE002800F03B810FF213
:101B70000C5120460C22FEF701FE002800F05E8189
:101B800047F67071C0F6000120460822FEF7F6FD08
:101B9000002800F0538147F67971C0F60001204615
:101BA0000822FEF7EBFD002800F0488147F6D070D0
:101BB000C0F6000076E000BF46F66810C7F2743049
:101BC000039046F66560C5F67470029047F2635064
:101BD00040F6744B48F2BB050024C7F272200C2675
:101BE0000DF10408C2F2000BC0F600058DF810409C
:101BF000019000BF5BF8247008EB0600C6F5007189
:101C00002A4623460097FEF73BFC1E2C05D80644C7
:101C1000B6F5007F04F10104ECD348F22500C0F6CC
:101C2000000001A900F032FB3EE000BF40F20C00D2
:101C3000C2F20000817E9AF8012048F27E00C0F6D0
:101C4000000000F023FB2FE040F67440C2F20000D9
:101C50008021FEF723FE40F20C04C2F20004607EF5
:101C60002146207648F21C00C0F6000005F074FC06
:101C7000616947F6A970C0F6000005F06DFC217E91
:101C8000627E48F26200C0F6000005F065FCA17EAD
:101C900048F26F00C0F6000005F05EFC47F6827067
:101CA000C0F6000000F0F2FAAAF812900DF5017DDE
:101CB00000F0ECB90520732D08BF0920255C044411
:101CC000002D54D0FEF73EFB0068415DC90735D0BA
:101CD0006578ADB3415DC90734D0A578A5B3415D42
:101CE000C90733D0E5789DB3415DC90732D014F8F8
:101CF000045F002DE9D13AE0002001902078062110
:101D0000732808BF0F21601801A900F0C3F978B14A
:101D1000019803F02DFE40F20C00C2F20000416970
:101D200047F69070C0F6000000F0B0FABCE700BFC4
:101D300047F6F970C0F60000B4E700BF20460AE09D
:101D4000013414E0601C06E0023410E0A01C02E044
:101D500003340CE0E01C222D08D1044614F8011FC6
:101D6000E1B122292ED10025EBE000BF0446204638
:101D7000FEF7E5FC26180546A64209D9FEF7E2FA69
:101D8000006816F8011C405CC007A5F10100F1D104
:101D9000A5F1110010F1100F80F0D38047F6E67026
:101DA000C0F600007EE700BF03F062FD40F20C00C9
:101DB000C2F20000017E48F2A500C0F6000000F06B
:101DC00065FA71E781780029E8D0222902D101253E
:101DD000B7E000BFC1780029E0D0222926D1022532
:101DE000AFE000BF0020019020780821732808BFD1
:101DF0000C21601801A900F0D9F988B101982028B8
:101E00000ED2C0B203F08CFD40F20C00C2F2000012
:101E1000817E48F25000C0F6000000F037FA43E738
:101E200048F22800C0F600003CE700BF0179002915
:101E3000B4D022291AD1032583E000BF00200190ED
:101E400020780821732808BF0C21601801A900F030
:101E5000ADF998B10199402910D248F23E00C0F680
:101E600000008AF8011000F011FA1DE741790029FD
:101E70003FF494AF222907D1042562E047F6BA70F7
:101E8000C0F600000EE700BF817900293FF486AF5D
:101E9000222901D1052554E0C17900293FF47EAF04
:101EA000222901D106254CE0017A00293FF476AFC2
:101EB000222901D1072544E0417A00293FF46EAF81
:101EC000222901D108253CE0817A00293FF466AF40
:101ED000222901D1092534E0C17A00293FF45EAFFF
:101EE000222901D10A252CE0017B00293FF456AFBD
:101EF000222901D10B2524E0417B00293FF44EAF7C
:101F0000222901D10C251CE0817B00293FF446AF3A
:101F1000222901D10D2514E0C17B00293FF43EAFF9
:101F2000222901D10E250CE0017C00293FF436AFB7
:101F3000222901D10F2504E0407C22287FF42EAF16
:101F400010250DF10408404621462A46FEF761FCA3
:101F5000605D61192238B0FA80F04709CE5D00203B
:101F600008F8050016B3FEF7EDF9E91900682144F9
:101F70000431825DD2073FF411AF11F8032CAAB1EE
:101F8000825CD2073FF40AAF11F8022C72B1825C76
:101F9000D2073FF403AF11F8012C3AB1825CD207AB
:101FA0003FF4FCAE11F8046B002EE2D101A803F05F
:101FB00089FC48F20D0040F20C01C0F60000C2F2AC
:101FC000000100F063F96FE663757272656E745F0D
:101FD00073657474696E67730000000068697473D8
:101FE0000000000072657365745F686974730000B7
:101FF000524553455400000072657365740000003B
:102000007365745F6E616D653A0000004E414D4529
:102010003A0000006E616D653A0000007365745F00
:102020007465616D5F636F6C6F723A00434F4C4F24
:10203000523A0000636F6C6F723A000073696D75FD
:102040006C6174655F686974000000004849540061
:10205000686974007365745F616464726573733A70
:1020600000000000414444524553533A0000000030
:10207000616464726573733A000000007365745F95
:10208000636F6D6D616E643A0000000030BCBDE8A6
:10209000C08F0000F0B581B000284FF0000500F0BF
:1020A0007C800C46002978D00578EDB10646FEF715
:1020B00049F90146096830464A5DD2072AD0457879
:1020C000F5B14A5DD2071DD08578EDB14A5DD207E2
:1020D0001CD0C578E5B14A5DD20765D010F8045F21
:1020E000002DE9D115E000BF0021425C4618302ADE
:1020F00019D1707840F02000782808BF023615E02A
:10210000013006E0013005E0023002E0023001E07B
:1021100003300025A5F12201B1FA81F14909425CA1
:102120004618302AE5D0232A08BF0136FEF70AF9FF
:10213000016832780025895C81EA810109062CD585
:1021400007466946304610220095FEF7BCFA009A11
:10215000B24222D01378222B08BF12F8013FC3B13C
:1021600039680232CB5CDB071AD012F8013C83B12C
:10217000CB5CDB0714D013785BB1CB5CDB070FD0F3
:10218000537833B1CB5CDB070AD093780432002B51
:10219000E8D120F07F4001252060284601B0F0BD45
:1021A0000025284601B0F0BD0330B3E7F0B581B09B
:1021B00000284FF0000560D00C4600295DD006785D
:1021C000E6B10746FEF7BEF80146096838468A5D63
:1021D000D2071FD046789EB18A5DD20712D086788A
:1021E00096B18A5DD20711D0C6788EB18A5DD207CA
:1021F0004AD010F8046F002EE9D10AE000210EE069
:10220000013006E0013005E0023002E0023001E07A
:1022100003300026A6F12201B1FA81F149094618DE
:102220006946304600220095FEF74DFA009FB742FE
:1022300023D03D780646222D08BF17F8015FD5B19F
:10224000FEF780F80068B91C425DD20718D011F87B
:10225000012C82B1825CD20712D00A785AB1825C1A
:10226000D2070DD04A7832B1825CD20708D08D787F
:102270000431002DE8D101252660284601B0F0BDCB
:102280000025284601B0F0BD0330C3E783B0F0B5A8
:1022900082B0CDE907120993C8B340F2C006C2F27A
:1022A00000060446F078032831D8B07B40F2A0172E
:1022B00000EB0020C2F2000707EB400507AB284601
:1022C00040F2FD112246019340F2FD14FEF7BAF8E8
:1022D00000281CD4B0F5FE7FD8BF044640F60D2080
:1022E0002853A01C00212954A5F80002F078717928
:1022F000B27B013202F00302B273421CD0B2801AE8
:1023000018BF01200029F27008BF002804D002B0D5
:10231000BDE8F04003B07047307940EA002007EB99
:102320004001B1F8002240F66430C2F2000003F030
:102330007FF9002804BF0120707102B0BDE8F040B1
:1023400003B07047FEE7000040F6F010C2F2000054
:1023500000F06CB840F6A810C2F2000000F066B8B9
:1023600040F63820C2F2000000F060B8704700006C
:10237000082000F0AFB90000EFF3108072B600BF84
:10238000FEE70000002804BF0120704790F82510E8
:10239000022919D10168D0E910C30A6822F00102AC
:1023A0000A600A6822F00E020A6003F01C01012292
:1023B00002FA01F1CCF80410002180F82520002257
:1023C00080F82420084670470421C16301210022BF
:1023D00080F824200846704790F82510022921D162
:1023E00080B50268D0F838C0D0E910E1136801F078
:1023F0001C0123F0010313601368BCF1000F23F0EC
:102400000E0313604FF0010202FA01F1CEF804103E
:102410004FF0000180F8252080F8241018BFE04715
:10242000002080BD0421C1630120704770B5D0E950
:1024300010C20168DCF8004002F01C0304220E68A0
:102440009A40224218BF16F0040523D1022202FA54
:1024500003FE1EEA040F18BF16F002022AD124FA66
:1024600003F2120714D516F0080208BF70BD0A68FF
:1024700022F00E020A60012101FA03F2CCF80420D6
:10248000C16380F82510416B002280F8242069B9CF
:1024900070BD00BF0B689B0603D40B6823F00403D8
:1024A0000B60CCF80420016B0029F1D0BDE870402E
:1024B000084700BF0A68920606D40A6822F00A029A
:1024C0000A60012280F825200422C4F2020202F1EF
:1024D0007C03994288BF02F58062C2F800E0C16ABD
:1024E0000022002980F82420E0D1D1E7002804BF91
:1024F000012070472DE9F04F40F2000CC4F2020CAD
:1025000002684FF6F8310CF5816ECBF6FD7172451D
:1025100038BF01F580614CF6CD431144CCF6CC4375
:10252000A1FB03136FF003010CF5806701EA930A26
:102530004FF00203D0E902B8D0F810903CBF00275A
:10254000C4F20207C0E9107A80F82530136847F614
:10255000F077BB431360D0E9053748EA0904D0E9B6
:10256000075623433B4311682B433343194341EA46
:102570000B01BBF5804F116015D04FF495640AF044
:102580001C010F23724538BFA8245CF804208B403F
:102590009A434CF8042042685CF8043002FA01F1D6
:1025A00019434CF8041000210122C16380F8252052
:1025B00080F82410002000F000B830BCBDE8C08FC7
:1025C00090F824C0BCF1010F04BF02207047F0B5A1
:1025D0004FF0010E80F824E090F825C0BCF1010F07
:1025E0002AD14FF0020C80F825C04FF0000CC0F843
:1025F0003CC0D0F800C08468056B066CDCF8007045
:10260000102C27F00107CCF80070406C00F01C0083
:102610000EFA00F070600846CCF8043004BF104693
:102620000A46CCF80800CCF80C20DCF800005DB1BC
:1026300040F00E0010E000BF8021C163002180F84F
:1026400024100120F0BD00BF20F00400CCF80000F1
:10265000DCF8000040F00A00CCF80000DCF80000D4
:1026600040F00100CCF800000020F0BDB0B50446F9
:1026700000F024F9054640F20000C2F200000078A4
:10268000611C18BF044400BF00F018F9401BA042B1
:10269000FAD3B0BD082818BF704780B54FF09040FE
:1026A000082100F0FFF8012810D100F007F940F2EE
:1026B000C001C2F200014A69821AB2F5967F05D3C1
:1026C00048618878002804BF01208870BDE88040F8
:1026D0007047000040F21441C4F201010A6802424E
:1026E00014BF08607047FFF7D5BF00002DE9F04F19
:1026F00083B00C68002C00F0CF8000F1200240F283
:10270000004E009240F60002C4F2010EC4F6000230
:102710000723002500274FF00008904208BF02233E
:1027200001934DE040F20042C4F60002DDF804904F
:10273000904208BF4FF0010905F00C060F22B2408D
:102740002CEA020209FA06F64FEA9803324344F8EB
:102750002320DEF808204B6842EA0A0640F20C4CBF
:10276000DC0258BF22EA0A06CEF80860C4F2010C67
:10277000DCF800209C0242EA0A0658BF22EA0A0658
:10278000CCF80060DEF804209C0342EA0A0658BF39
:1027900022EA0A06CEF80460DEF80020DB0342EAF3
:1027A0000A0658BF22EA0A06CEF800600C6808F153
:1027B000010834FA08F207F1020705F104056BD0AD
:1027C000012202FA08FC14EA0C0AEFD0D1F804B096
:1027D00003230BF00304621E03FA07F6012A6FEAD3
:1027E000060911D88268CE6802EA0902BE40324367
:1027F00082604268CBF3001622EA0C0206FA08F661
:102800003243426004E000BF032C01D103241EE0E8
:10281000C2688E6802EA0902BE403243022CC260DE
:1028200015D16FF0030202EA580B009A05F01C0460
:1028300052F80BC00F230E69A3402CEA0303A640F5
:10284000334342F80B30D1F804B00BF003040268B4
:1028500004FA07F302EA09021A431BF4403F02603C
:10286000A4D041F26003C4F202031A68AEF57E748C
:1028700042F001021A601A68B0F1904F02F00102B2
:102880000292029A28F0030254F802C07FF44AAF81
:102890004FF0000950E700BF03B000F000B830BCB3
:1028A000BDE8C08F0069084018BF012070470000D4
:1028B0001823002A08BF2823C150704741F20000A6
:1028C000C2F200000068704740F2000041F20001CF
:1028D000C2F20000C2F2000100780A6810440860E9
:1028E0007047000080B5032000F08CF8002000F055
:1028F00009F800281CBF012080BD00F02BF8002043
:1029000080BD0000B0B540F20005C2F20005297894
:10291000F1B1044640F20800C2F200004FF47A72AE
:102920000068B2FBF1F1B0FBF1F000F0B5FF014639
:102930000F2C4FF001000AD8002918BFB0BD4FF08E
:10294000FF302146002200F031F800206C60B0BD5D
:102950000120B0BD82B041F25800C4F2020081688B
:1029600041F001018160816801F00101019101994B
:10297000016841F080510160006800F080500090D3
:10298000009802B070470000002848BF704700F070
:102990001F01012202FA01F11C2202EAD0004EF2CC
:1029A0000012CEF2000281507047000010B54EF6C2
:1029B0000C5CCEF2000CDCF80030C3F3022E8EF07B
:1029C0000704042C28BF0424BEF103034FF0FF3E8C
:1029D0000EFA04F438BF0023A14399400EFA03F322
:1029E0009A43114300F00F0200F160430901043AD9
:1029F00003F564436244002848BF02F10C031970D8
:102A000010BD00004EF60C51CEF200010A684FF6E0
:102A1000FF031A4060F30A2242F0806040F0FD702C
:102A20000860704747F20001C4F200010A68B0F57F
:102A3000007F02F4C06031D1B0F5007F2CD008686F
:102A4000012262F34A20086040F20800C2F200004E
:102A50000068322250434DF68362C4F21B32A0FB61
:102A60000202900C4A69520511D5421C0FD04A69E6
:102A700052050CD558B14A69520508D5012806D02F
:102A80004A69520503D50228A0F10400EAD1486939
:102A9000400544BF0320704700207047B0F5806FA9
:102AA000FAD00868022262F34A20086000207047CA
:102AB00047F20000C4F20000006800F4C0607047F4
:102AC0002DE9F04381B00446407841F288070007C1
:102AD000C4F202071ED5E06B80B1B0F5400F14D0F0
:102AE000B0F5000F40F0148157F87C0C40F48030B2
:102AF00047F87C0C4FF4000007E000BF201D0021C8
:102B000003F0E8F8814638B9E06B396821F44001F8
:102B1000084338604FF00009A078800752D557F875
:102B2000300C5FEAC0080BD457F8300C40F08050EE
:102B300047F8300C57F8300C00F0805000900098A7
:102B400047F20005C4F20005286840F48070286050
:102B5000FFF7B4FE064600BF2868C00508D4FFF79B
:102B6000ADFE801B0228F7D94FF0030921E000BF1A
:102B7000B9F1000F1DD1B86810F4407011D0216D6B
:102B800088420BD0B868B96820F4407041F48031B5
:102B9000B960B96821F48031B960B860C00740F00D
:102BA000BF80B868216D20F4407008434FF00009E1
:102BB000B860B8F1000F05D457F8300C20F0805001
:102BC00047F8300C2168C8070ED1880714D488064E
:102BD0001AD4880520D4480526D448062CD4C80524
:102BE00032D4880438D449E03868226A20F00300DF
:102BF000104338608807EAD53868626A20F00C0014
:102C0000104338608806E4D53868A26A20F4406032
:102C1000104338608805DED53868626B20F44020A8
:102C2000104338604805D8D53868A26B20F44010AE
:102C3000104338604806D2D53868E26A20F4405024
:102C400010433860C805CCD53868226B20F440307A
:102C500010433860880411D53A68206C22F0406235
:102C60000243B0F1806F3A601ED0B0F1006F05D121
:102C700057F87C0C40F4801047F87C0C480327D5AB
:102C80003A68606C22F040620243B0F1806F3A60B3
:102C900016D0B0F1006F1BD157F87C0C40F48010B7
:102CA00047F87C0C14E000BF201D012103F012F84E
:102CB0002168002818BF81464803E1D408E000BF1E
:102CC000201D012103F006F82168002818BF814665
:102CD000480410D53868A26C20F040501043B2F17F
:102CE000805F386007D1201D022102F0F3FF2168C8
:102CF000002818BF8146080405D53868E16C20F02B
:102D0000804008433860484601B0BDE8F08300BF0A
:102D10004FF00109A07880073FF501AF52E700BFEF
:102D2000FFF7CCFD064641F288354FF0030900BF9E
:102D3000B86880073FF535AFFFF7C0FD801BA8429C
:102D4000F6D936E72DE9F04381B0002800F08C80F9
:102D500042F20009C4F202090446D9F8000000F06A
:102D6000070088420CD2D9F8000020F00700084381
:102D7000C9F80000D9F8000000F00700884273D1BC
:102D8000206841F2080610F00202C4F202060AD0DE
:102D9000A368376807F0F007BB4204D9376827F00B
:102DA000F0073B433360C30734D0606856F8082C03
:102DB00050B1022804D003280AD192010AD453E06A
:102DC000920307D450E000BF920703D44CE000BF49
:102DD000520549D58846316821F003010843306027
:102DE000FFF76CFD054641F2883700BF3068616827
:102DF00000F00C00B0EB810F08D0FFF75FFD401B27
:102E0000B842F3D9032001B0BDE8F0832068414601
:102E100000F0020252B1A268336803F0F0039A4254
:102E200004D2336823F0F0031A433260D9F800204B
:102E300002F007028A420CD9D9F8002022F00702DA
:102E40000A43C9F80020D9F8002002F007028A429C
:102E50000AD141070CD4000712D43068716810F011
:102E60000C0019D11EE000BF012001B0BDE8F083C5
:102E70003168E26821F4E061114331600007ECD56C
:102E80003068216920F4605040EAC1003060306849
:102E9000716810F00C0005D00C282BD101F0030153
:102EA000012927D156F8081C042211F008016FF0FF
:102EB000070108BF8C21715808BF0822D14047F68E
:102EC000007201F00F01C0F6000252F82110002834
:102ED0000A4618BF00220C2838D1706800F00300A1
:102EE000022811D0032804BF41F20021C0F27A0168
:102EF0000EE000BF04281FD0082823D141F2002291
:102F0000C0F27A0222E000BF42F20041C0F2F401B6
:102F100070687268C0F30210C2F3062251437268EF
:102F20000130B1FBF0F0C2F34161022202EB41013A
:102F3000B0FBF1F20AE000BF42F20042C0F2F4023C
:102F400004E000BF002200210C28C6D0306847F6FC
:102F5000E861C0F30310C0F60001085C00F01F0038
:102F600022FA00F140F20400C2F2000040F208022E
:102F70000068C2F20002116001B0BDE8F043FFF743
:102F8000C1BC000040F2080041F20801C2F200009A
:102F9000C4F202010068096847F6F862C1F3022131
:102FA000C0F60002515C01F01F01C84070470000EC
:102FB00040F2080041F20801C2F20000C4F202012E
:102FC0000068096847F6F862C1F3C221C0F6000242
:102FD000515C01F01F01C8407047000041F20C0134
:102FE000C4F2020151F8040C10F00C02086805D07C
:102FF0000C2A2BD100F00300012827D151F80C0C2A
:10300000042310F008006FF00B0008BF8820085858
:1030100008BF0823D84047F6007300F00F00C0F641
:10302000000353F82030002A184618BF00200C2A4D
:1030300018BF7047086800F00300022810D003286A
:1030400004BF41F20023C0F27A030DE0042A1FD02E
:10305000082A23D141F20020C0F27A00704700BF55
:1030600042F20043C0F2F40308680A68C0F3021099
:10307000C2F30622096801305A43B2FBF0F0C1F3F3
:103080004161022202EB4101B0FBF1F0704700BF49
:1030900042F20040C0F2F400704700BF002000235D
:1030A000C5E70000002804BF012070472DE9F04368
:1030B00083B041F200060446C4F20206B068F1682B
:1030C000227800F00C09D00601F003081ED4207805
:1030D000C00700F08880B9F1080F00F07D80B9F1D9
:1030E0000C0F08BFB8F1030F76D061683068B1F5F6
:1030F000803F07D0B1F5A02F40F0528240F48020ED
:103100003060306840F48030306053E2B9F1000F35
:103110001CD0B9F10C0F08BFB8F1010F16D0A1698E
:103120003068002900F0A08140F001003060FFF716
:10313000C5FB05463068800700F1A881FFF7BEFB9C
:10314000401B02284FF00300F4D960E33068800789
:1031500003D5A069002800F00F83256A30680007B6
:1031600000F14A81D6F89400000900F0F000854291
:1031700000F248813068B9F1000F40F0080030607B
:10318000306820F0F00040EA050030607068E169C6
:1031900020F47F4040EA0120706040F0B882B06DBA
:1031A000C00000F15582B06D40F08050B065B06D48
:1031B00000F0805002900298FFF77AFCB16D21F088
:1031C0008051B165B0F5007F00F04882802D40F25B
:1031D000858203208DE200BF3068800303D56068DC
:1031E000002800F0C982207880072DD5B9F1040F9E
:1031F0001CD0B9F10C0F08BFB8F1020F16D0E1686E
:103200003068002900F0E68140F480703060FFF7FC
:1032100055FB0546306840050FD4FFF74FFB401BB8
:1032200002284FF00300F5D9F1E200BF30684005F5
:1032300003D5E068002800F09F827068216920F0C3
:10324000F85040EA016070602078000760D4207870
:10325000400779D42078800600F1B280A06A002867
:1032600000F01683022840F02381F068E16A00F044
:1032700003028A4240F03481226B6FF00F0300F0AA
:10328000700103EB0212914240F02A81616B00F45D
:10329000FE42B2EB012F40F02381A16B00F0784297
:1032A000B2EBC16F40F01C81E26B0023CFF6E073FC
:1032B00003EA025200F4C001A2F50012914240F06C
:1032C0000F81216C4FF07E4202EA016100F0C06084
:1032D00001F17E41884240F003813068800100F1B5
:1032E000D782306840F080703060F06840F08070C5
:1032F000F060FFF7E3FA04463068800100F1C8820D
:10330000FFF7DCFA001B02284FF00300F4D97EE23D
:103310006169D6F89400002900F0908040F0010027
:10332000C6F89400FFF7CAFA054600BFD6F8940025
:1033300080078CD4FFF7C2FA401B0228F6D903207D
:1033400003B0BDE8F08300BFB06D5FEAC00808D4E9
:10335000B06D40F08050B065B06D00F080500090CE
:10336000009847F20007C4F200073868C00513D47C
:10337000386840F480703860FFF7A0FA054600BF57
:103380003868C00508D4FFF799FA401B02284FF0AF
:103390000300F5D93BE200BFA168D6F890000129EF
:1033A00008D0052940F0DC8040F00400C6F8900009
:1033B000D6F8900040F00100C6F89000DCE000BFB5
:1033C000616AD6F89800002900F0B48040F001004E
:1033D000C6F89800FFF772FA054600BFD6F89800C5
:1033E00080073FF53BAFFFF769FA401B02284FF01B
:1033F0000300F3D90BE200BF306800F0F000854213
:103400007FF6B8AEB06DC00000F18680B06D40F0C0
:103410008050B065B06D00F0805001900198FFF7CA
:1034200047FBB16D21F08051B165B0F5007F79D0D7
:10343000802D40F2E1800320E9E000BF20F0010090
:10344000C6F89400FFF73AFA054600BFD6F8940094
:1034500080077FF5FCAEFFF731FA401B02284FF0E2
:103460000300F3D9D3E100BF20F001003060FFF783
:1034700025FA0546306880077FF529AEFFF71EFA6A
:10348000401B02284FF00300F4D9C0E1306840F03F
:10349000080030603068D4E9071220F0F0001043D3
:1034A0003060706820F47F4040EA012070600EE6D2
:1034B000B9F10C0F00F06081306820F0807030604E
:1034C000FFF7FCF9044600BF3068800140F1EA8054
:1034D000FFF7F4F9001B02284FF00300F4D996E13E
:1034E000B9F10C0F00F048813068400100F14481CF
:1034F000306820F080703060FFF7E0F9054600BFCB
:103500003068800140F18681FFF7D8F9401B02281E
:103510004FF00300F4D97AE1FFF7CAFAB0F5007F63
:103520007FF486AF812D71D30120A02D88BF0220AA
:103530006DE000BF20F00100C6F89800FFF7BEF96B
:10354000054600BFD6F8980080077FF587AEFFF7E5
:10355000B5F9401B02284FF00300F3D957E100BF33
:1035600020F00100C6F89000D6F89000002920F065
:103570000400C6F8900079D0FFF7A0F9054641F2A3
:10358000883700BFD6F89000800700F18180FFF7F0
:1035900095F9401BB842F5D9032003B0BDE8F0838C
:1035A00020F4803030603068002920F480203060C2
:1035B00000F08480FFF782F9054600BF3068800381
:1035C0003FF511AEFFF77AF9401B64284FF0030076
:1035D000F4D91CE120F480703060FFF76FF90546E4
:1035E000306840057FF530AEFFF768F9401B0228D0
:1035F0004FF00300F4D90AE1A5F17000B0FA80F0B1
:103600004009802D08BF022001E000BF002042F2E7
:103610000001C4F202010A6822F0070202440A60B3
:10362000096801F00701814240F0A680306840F04F
:10363000080030603068D4E9071220F0F000104331
:103640003060706820F47F4040EA012070605EE0E6
:10365000FFF72EFAB0F5007F7FF4B8AD812D47D388
:103660000120A02D88BF022043E000BFFFF726F90C
:10367000054641F2883700BFD6F89000800707D58D
:10368000FFF71CF9401BB8424FF00300F4D9BEE02D
:10369000B8F1000F3FF5DEADB06D20F08050B065A1
:1036A000D8E500BFF0684FF6FC71CFF6EE61084038
:1036B000F060002003B0BDE8F08300BFFFF7FEF824
:1036C000054600BF306880037FF58DADFFF7F6F843
:1036D000401B64284FF00300F4D998E0A5F1700076
:1036E000B0FA80F04009802D08BF022001E000BF41
:1036F000002042F20001C4F202010A6822F007022F
:1037000002440A60096801F00701814234D1B068BF
:10371000F16810F00C0005D00C2831D101F0030144
:1037200001292DD1314651F8942B12F0080232466E
:1037300008BF0A464FF00401126808BF082122FAA8
:1037400001F147F6007201F00F01C0F6000252F8D5
:10375000211000280A4618BF00220C283CD1F0682E
:1037600000F00300022815D0032804BF41F2002115
:10377000C0F27A0112E000BF012003B0BDE8F0837F
:1037800004281FD0082823D141F20022C0F27A0277
:1037900022E000BF42F20041C0F2F401F068F2689A
:1037A000C0F30210C2F306225143F2680130B1FBAC
:1037B000F0F0C2F34161022202EB4101B0FBF1F2F1
:1037C0000AE000BF42F20042C0F2F40204E000BF8F
:1037D000002200210C28C2D0B06847F6E861C0F38F
:1037E0000310C0F60001085C00F01F0022FA00F18F
:1037F00040F20400C2F2000040F208020068C2F287
:1038000000021160FFF77EF800283FF460AC03B0BF
:10381000BDE8F083F06848F28C01C0F29D1104F11C
:103820002C0700EA010C8ECF6FF00F00D4E90F5483
:1038300000EB02100022CFF6E07241EA0C0102EA2E
:1038400005520843A2F500124FF07E4540EA0320DE
:1038500005EA0465104305F17E4540EAC760284348
:10386000F060306840F080703060F06840F0807048
:10387000F060FFF723F804463068800108D4FFF7B2
:103880001DF8001B02284FF00300F5D9BFE700BF69
:10389000002003B0BDE8F083411E0020B0EB116FA3
:1038A0001CBF012070474EF21002CEF200025160A0
:1038B0004EF62351CEF20001F0230B7007219060E9
:1038C00011607047704700007047000070470000AB
:1038D00090F83C20012A04BF0220704710B5D1E9BE
:1038E0000232D1E900CE22F47C5223F470531A4301
:1038F00048F2FF73CFF6F07303EA0E0342EA030EB9
:103900000A692CF477234EEA030C22F476224B69E1
:1039100042EA0C021A438B6A22F4742223F47023C5
:1039200042EA030C8B69D0F800E042F60042C4F290
:10393000010296454CEA03430FD123F07C72D1E992
:10394000073C496A0024CFF6F04404EA01511143D0
:1039500023F00072114341EA0C030021CEF84430F9
:1039600080F83C10002010BD90F83C20012A4FF058
:1039700002022DD010B580F83D20026842F6004CBE
:103980005368D2F808E0C4F2010C624503D14C68D8
:1039900023F4700323430C6823F070032343B2F134
:1039A000804F536007D044F20003C4F201039A42EF
:1039B00001D0624504D189682EF0800319439160DB
:1039C0000121002280F83D1080F83C20BDE8104025
:1039D00010467047002804BF01207047B0B590F82A
:1039E0003D1031B9002180F83C10044600F068F821
:1039F0002046022180F83D10016842F6004E0A6818
:103A0000C4F2010E714502D0B1F1804F03D1846838
:103A100022F07002224343F6FF74C4F2010444F220
:103A2000004CA142C4F2010C06DCB1F1804F0BD076
:103A3000714509D00CE000BF614505D044F2000497
:103A4000C4F20104A14203D1046922F4407222436A
:103A50004368C56884697145CD628B6218BF614552
:103A600026D143690B630B6822F0800243F0040304
:103A700022430B6001234B610A6080F8483080F8D4
:103A80003E3080F83F3080F8403080F8413080F898
:103A9000423080F8433080F8443080F8453080F878
:103AA000463080F8473080F83D300020B0BD00BF80
:103AB00044F20003C4F201039942D2D0D3E70000DC
:103AC00080B586B0006844F20041C4F2010188422A
:103AD0004FF000010591CDE90311CDE9011153D05B
:103AE00044F20001C4F20101884235D0B0F1804FA8
:103AF00057D141F26000C4F2020050F8081C41F0B6
:103B0000010140F8081C50F8081C01F00101009167
:103B1000009950F8141C41F0010140F8141C50F8B1
:103B2000140C022100F00100009000980120029185
:103B300000210190CDE90311059001A94FF09040BB
:103B4000FEF7D4FD1C2001210022FEF72FFF1C20D0
:103B5000FEF71AFF06B080BD41F26000C4F2020019
:103B60000168002241F4803101600068022100F404
:103B70008030009000981820FEF718FF182006B03B
:103B8000BDE88040FEF700BF41F26000C4F20200D1
:103B9000016841F400310160006800F400300090D9
:103BA000009806B080BD000090F83D10012929D191
:103BB000022180F83D100168C868B1F1804F40F0E3
:103BC0000100C8600BD044F20000C4F20100814241
:103BD00005D042F60040C4F2010081420CD1886851
:103BE0000722C0F201020240062A4FF000000AD06C
:103BF000B2F5803F08BF7047086840F001000860D8
:103C000000207047012070470146006841F21113FF
:103C1000C268C0F2110322F00102C260026A1A42B5
:103C200004D00122002081F83D207047026A40F252
:103C300044431A42F5D1026822F0010202600122D7
:103C4000002081F83D20704790F83C20012A4FF079
:103C5000020200F0878010B580F83D20D0F800E027
:103C60008822DEF80830CFF6FE721A40CEF808201F
:103C70000B684F2B40DC1F2B5EDD202B60D0302BE0
:103C80005ED0402B40F0EC80D1F804C0C968DEF86B
:103C90002030DEF8202042F60044C4F20104A6459C
:103CA00022F00102CEF820200BD044F20042C4F2F0
:103CB0000102964505D044F20002C4F20102964585
:103CC00005D1DEF8202022F00402CEF82020DEF814
:103CD000182022F0F00242EA011123F00A0242EA1F
:103CE0000C02CEF81810CEF82020DEF8081041F0B3
:103CF000470121F030012AE06F2B35DDB3F5005F7D
:103D000000F09A80B3F5805F23D0702B40F0A8803C
:103D1000D1E901C3C968DEF8082043EA0C0322F4A4
:103D20007F4243EA01211143CEF80810DEF8081063
:103D300041F077010BE000BF13B1102B40F09080F1
:103D4000DEF8081021F07001194341F00701CEF8A8
:103D500008100022012180F83D10002180F83C105D
:103D6000BDE8104010467047502B2DD0602B77D106
:103D7000D1F804C0C968DEF82030DEF8202042F611
:103D80000044C4F20104A64522F01002CEF820201F
:103D900005D1DEF8202022F04002CEF82020DEF807
:103DA000182022F4704242EA013123F0A00242EAD4
:103DB0000C12CEF81810CEF82020DEF8081041F0D2
:103DC000670121F01001C2E7D1F804C0C968DEF82C
:103DD0002030DEF8202042F60044C4F20104A6455B
:103DE00022F00102CEF820200BD044F20042C4F2AF
:103DF0000102964505D044F20002C4F20102964544
:103E000005D1DEF8202022F00402CEF82020DEF8D2
:103E1000182022F0F00242EA011123F00A0242EADD
:103E20000C02CEF81810CEF82020DEF8081041F071
:103E3000570121F020018AE7D1E901C3C968DEF802
:103E4000082043EA0C0322F47F4243EA0121114394
:103E5000CEF80810DEF8081041F4804177E700BF83
:103E6000012277E710B540F2B004C2F200042178D5
:103E700001B110BD007F022810D0012818BF10BD6D
:103E800040F61830C2F20000002100F06BFEE1683D
:103E9000401A0021BDE8104001F092BD40F61830F4
:103EA000C2F20000042100F05DFE0121E060BDE8E7
:103EB000104001F085BD000090F83C30012B04BF9C
:103EC000022070474FEAB202032A00F2C9802DE9AE
:103ED000F041DFE802F0038D3F6700BF0368D1E9DE
:103EE00000C5D1F80CE01C6A1A6A42F60048C4F218
:103EF000010844F2000722F001024345C4F2010721
:103F00001A6207D044F20042C4F20102934201D087
:103F1000BB4203D11A6A22F004021A621A4652F80E
:103F2000186FB3F1804F18BFBB4240F09F8026F05E
:103F30000306354324F00A070CF00A066EF3071552
:103F400037449D611F629F6927F00C079F61896854
:103F50007AE000BF0268D1E900C7CD68166A146A2A
:103F600042F60043C4F201039A4224F480731362C0
:103F700003D1136A23F48063136252F81C3F65F384
:103F8000071723F0F3033B4326F420670CF00A06DF
:103F900047EA062713605760136823F00C03136089
:103FA000896851E00368D1E900E6D1E902C11C6AE1
:103FB0001A6A360222F480521A621A4652F81C5FBC
:103FC0004FF2FF07BE4325F4734561F30F3624F427
:103FD00020440EF00A0746EA050144EA073711605B
:103FE0001F62116821F4406111604FEA0C212BE03F
:103FF0000268D1E900C7CD68166A146A42F6004328
:10400000C4F201039A4224F01003136203D1136A2D
:1040100023F04003136252F8183F3F024FF2FF04AF
:10402000A74323F4734365F30F373B4326F0A00700
:104030000CF00A0647EA061713609760136823F42A
:1040400040631360896809021368194311600021F5
:10405000BDE8F041002280F83C200846704700BFD0
:104060000121002280F83C200846704743453FF478
:104070005EAF46F001055DE7002804BF01207047F0
:10408000B0B590F83D1031B9002180F83C100446DD
:1040900000F068F82046022180F83D10016842F6E1
:1040A000004E0A68C4F2010E714502D0B1F1804F92
:1040B00003D1846822F07002224343F6FF74C4F2F5
:1040C000010444F2004CA142C4F2010C06DCB1F13F
:1040D000804F0BD0714509D00CE000BF614505D081
:1040E00044F20004C4F20104A14203D1046922F4A1
:1040F000407222434368C56884697145CD628B6212
:1041000018BF614526D143690B630B6822F080021A
:1041100043F0040322430B6001234B610A6080F8E3
:10412000483080F83E3080F83F3080F8403080F8EA
:10413000413080F8423080F8433080F8443080F8D5
:10414000453080F8463080F8473080F83D30002018
:10415000B0BD00BF44F20003C4F201039942D2D0C3
:10416000D3E700007047000080B5E9B10A1F4FEAAD
:10417000B20E43234FF03F0CBEF1040F38BF0CEBDF
:10418000B203C25C4723082908BF4623042908BF9D
:104190004523012A4FF0010210F803C008BFBCF10B
:1041A000010F17D0104680BD90F83E2090F84430A3
:1041B000012A4FF0010208BF012BF3D1022280F83F
:1041C0003E2080F844204FEAB103032B4FF0010258
:1041D000E8D838E0BEF1030F28D8DFE80EF0031569
:1041E000090F00BF022280F83F20082911D122E0E8
:1041F000022280F8412008290BD11CE0022280F81D
:104200004220082905D116E0022280F84020082922
:1042100011D0042914BF80F8472080F845204FEAC8
:10422000B103032B4FF00102BCD80CE0022280F84E
:1042300043200829EDD180F846204FEAB103032B33
:104240004FF00102AED847F6307C0068C0F6000C93
:104250005CF823C0C36801F01F0143EA0C03C3608C
:10426000036A02FA01F123EA01020262026AB0F172
:10427000804F41EA020101620BD044F20001C4F216
:104280000101884205D042F60041C4F20101884292
:104290000DD181680722C0F20102114006294FF0BA
:1042A00000023FF47FAFB1F5803F3FF47BAF016880
:1042B000002241F001010160104680BD4FEAB102C9
:1042C000032A4FF0010C65D810B547F6407E03680D
:1042D000C0F6000E5EF822E0DA6802EA0E02DA604A
:1042E00001F01F0E1C6A0CFA0EF224EA02021A6296
:1042F0001A6A41F211141A621A6AC0F211042242B7
:1043000004D11A6A40F24444224211D0BDE8104060
:10431000B1B10A1F4FEAB202032A31D8DFE802F036
:104320000222161C012280F83F2008291FD12CE010
:104330001A6822F001021A600029BDE81040E8D195
:10434000012180F83E1080F8441021E0012280F81D
:10435000412008290BD118E0012280F842200829C9
:1043600005D112E0012280F8402008290DD004294F
:104370004FF0010114BF80F8471080F8451007E0A6
:10438000012280F843200829F1D1012180F846104C
:104390004FF0000C60467047F0B581B004460068ED
:1043A000C5680669B10717D515F0020114D06FF082
:1043B00002010161012121778069800704D0204634
:1043C000FFF750FD06E000BF204600F0C9F8204688
:1043D00000F01AFB00202077700719D515F00400B3
:1043E00016D020686FF004010161022121778069F5
:1043F00010F4407F04D02046FFF734FD06E000BFF4
:10440000204600F0ADF8204600F0FEFA00202077AC
:10441000300717D515F0080014D020686FF0080198
:10442000016104212177C069800703D02046FFF78E
:1044300019FD05E0204600F093F8204600F0E4FA6C
:1044400000202077F00619D515F0100016D020684E
:104450006FF01001016108212177C06910F4407FDD
:1044600004D02046FFF7FEFC06E000BF204600F027
:1044700077F8204600F0C8FA00202077F00718BF30
:1044800015F0010006D020686FF00101016120469F
:1044900000F040FB16F4025F05F0800718BF002F04
:1044A00002D1F00509D410E020686FF402510161D7
:1044B0002046FFF709FAF00507D537B120686FF4F9
:1044C000807101612046FFF7FDF9700609D515F0EE
:1044D000400006D020686FF040010161204600F0E6
:1044E00079FBB0060CD515F0200009D021686FF0DB
:1044F000200220460A6101B0BDE8F040FFF7E6B9AE
:1045000001B0F0BD80B586B0006844F20042C4F24C
:10451000010200219042CDE90411CDE9021101917F
:1045200002D006B080BD00BF41F24C00C4F20200D0
:10453000026842F001020260006800F00100009091
:104540000098402001900220CDE902010E20049144
:10455000059001A94FF09040FEF7C8F806B080BD65
:104560007047000090F83C30012B04BF02207047D8
:104570004FEAB202052A00F2C9812DE9F041DFE8D5
:1045800012F007002D01A100ED006100790100BFCC
:10459000036842F600461D6A1A6A25F0020522F0F9
:1045A00001021A621A46D3F804C052F818EF8F6855
:1045B000D1F80080C4F20106B34245EA07050BD0EA
:1045C00044F20047C4F20107BB4205D044F20007A1
:1045D000C4F20107BB4207D11F6A25F0080527F086
:1045E00004071F62CF683D43B3420BD044F200463C
:1045F000C4F20106B34205D044F20006C4F201063B
:10460000B34206D1D1E905672CF44074264346EA4B
:10461000070C4FF68C74CFF6FE740EEA040747EAD7
:104620000807C3F804C09F614F6809695F631D6292
:104630009F6947F008079F619F6927F004079F6102
:1046400059E100BF036842F60047D3F820C01A6A58
:10465000C4F2010722F480321A621A465D6852F8E9
:10466000544FD1F800E08E68BB420BD044F20047B3
:10467000C4F20107BB4205D044F20007C4F20107AF
:10468000BB4204D14F6925F4803545EA07252CF457
:10469000003747EA06474FF68C76CFF6FE760336AC
:1046A000264046EA0E065D605E654E6809699E65B5
:1046B0001F625F6D47F008075F655F6D27F00407B5
:1046C0005F6518E1036842F600461C6A1A6A24F422
:1046D000007422F480721A621A465D6852F81CEF68
:1046E0008F68D1F800C0C4F20106B34244EA07243F
:1046F00008D11F6A24F4006427F480671F62CF6822
:1047000044EA0724B3420BD044F20046C4F2010647
:10471000B34205D044F20006C4F20106B34206D10A
:10472000D1E9056725F440553E4345EA06154FF6A5
:104730008C76CFF6FE760EEA060747EA0C075D6038
:10474000DF614F680969DF631C62DF6947F00807B2
:10475000DF61DF6927F00407DF61CCE0036842F620
:104760000047D3F820C01A6AC4F2010722F480522D
:104770001A621A465C6852F81C5FD1F800E08E6835
:10478000BB420BD044F20047C4F20107BB4205D044
:1047900044F20007C4F20107BB4204D14F6924F47C
:1047A000804444EA87142CF4005747EA063748F659
:1047B000FF46CFF6FF662E4046EA0E265C60DE61BD
:1047C0004E6809691E641F62DF6947F40067DF6194
:1047D000DF6927F48067DF618CE000BF036842F681
:1047E00000461C6A1A6A24F0200422F010021A62A1
:1047F0001A465D6852F818EF8F68D1F800C0C4F20D
:104800000106B34244EA071408D11F6A24F0800469
:1048100027F040071F62CF6844EA0714B3420BD069
:1048200044F20046C4F20106B34205D044F2000649
:10483000C4F20106B34206D1D1E9056725F440650B
:104840003E4345EA860548F6FF46CFF6FF660EEA88
:10485000060747EA0C275D609F614F6809699F63FF
:104860001C629F6947F400679F619F6927F4806716
:104870009F613FE0036842F60047D3F820C01A6A00
:10488000C4F2010722F480121A621A465D6852F8D7
:10489000544FD1F800E08E68BB420BD044F2004781
:1048A000C4F20107BB4205D044F20007C4F201077D
:1048B000BB4204D14F6925F4802545EA87252CF4B5
:1048C000001747EA065748F6FF46CFF6FF6606F59B
:1048D0004076264046EA0E265D605E654E680969B0
:1048E000DE651F625F6D47F400675F655F6D27F4EB
:1048F00080675F6509021368194311600021BDE8F4
:10490000F041002280F83C20084670470121002237
:1049100080F83C2008467047002804BF01207047FB
:10492000B0B590F83D1031B9002180F83C10044634
:1049300000F068F82046022180F83D10016842F638
:10494000004E0A68C4F2010E714502D0B1F1804FE9
:1049500003D1846822F07002224343F6FF74C4F24C
:10496000010444F2004CA142C4F2010C06DCB1F196
:10497000804F0BD0714509D00CE000BF614505D0D8
:1049800044F20004C4F20104A14203D1046922F4F8
:10499000407222434368C56884697145CD628B6269
:1049A00018BF614526D143690B630B6822F0800272
:1049B00043F0040322430B6001234B610A6080F83B
:1049C000483080F83E3080F83F3080F8403080F842
:1049D000413080F8423080F8433080F8443080F82D
:1049E000453080F8463080F8473080F83D30002070
:1049F000B0BD00BF44F20003C4F201039942D2D01B
:104A0000D3E70000704700007047000080B5D9B1BF
:104A10000B1F4FEAB30E43224FF03F0CBEF1040FC1
:104A200038BF0CEBB302825C012A1CBF012080BDA1
:104A3000BEF1030F1ED8DFE80EF00319111500BFF9
:104A4000022280F83F2018E090F83E20012A1CBF87
:104A5000012080BD022280F83E200EE0022280F874
:104A600041200AE0022280F8422006E0022280F87B
:104A7000402002E0022280F84320026801F01F007B
:104A80000121136A01FA00F023EA00011162116AA0
:104A9000084343F6FF71C4F201018A42106209DC47
:104AA000B2F1804F22D042F60040C4F201008242AF
:104AB0000CD028E044F20040C4F20100824205D04C
:104AC00044F20000C4F2010082421CD1506C44F256
:104AD0000001C4F2010140F400408A42506405D054
:104AE00042F60040C4F2010082420CD190680721D6
:104AF000C0F20101014006294FF0000008D0B1F5D5
:104B0000803F08BF80BD106840F0010010600020A9
:104B100080BD000010B50068B0F1804F16D044F29F
:104B20000001C4F20101884216D101F09BF800F0A7
:104B3000FFFF002818BF10BD40F2B004C2F200040D
:104B400002202070FDF7BAFEA06010BD40F2B00058
:104B5000C2F20000007808B110BD00BFBDE81040EF
:104B600001F0ACB84FEAB101032984BF00207047BF
:104B7000006800EB8100406B70470000B0B5044650
:104B800090F83C0001284FF0020008BFB0BD01259D
:104B900084F83C5084F83D00204601F059F9002883
:104BA0004FF0010006D0002184F83D5084F83C10FD
:104BB000B0BD00BF2068C16821F04001C160C1687C
:104BC00021F48041C1600020002184F83D5084F828
:104BD0003C10B0BD704700007047000070470000F7
:104BE000006844F20041C4F2000188420ED043F64E
:104BF0000001C4F20101884218BF704740F2C000B2
:104C0000C2F2000000214171704700BF02F076B887
:104C100070B5016840F62F03CA690E688C681340AE
:104C2000202B06F0200E07D1BEF1000F04D0816EBC
:104C300041B3BDE87040084740F60F031A4209D05F
:104C400040F22013C0F2004304F0010C334013EB98
:104C50000C0325D1036ED50616D5012B14D116F001
:104C6000100311D010220A628968490630D4B0F8C6
:104C70005810B0F85A20B0F85A30002B18BF9142A3
:104C800040F0448270BD00BFD30213D514F48003FA
:104C900010D04FF480120A62BDE87040FFF79EBF4B
:104CA000D30718BF16F4807340F0D280930700F149
:104CB000D980E2E0110640F1E18116F0800100F0B8
:104CC000DD81C16E0029DDD0BDE87040084700BF1E
:104CD000416F0A685368B0F8584099B2002900F053
:104CE0000382A14280F00082A0F85A301168890640
:104CF00000F1A180016851E8001F026821F4807171
:104D000042E80013DBB1016851E8001F026821F49A
:104D1000807142E8001393B1016851E8001F0268F6
:104D200021F4807142E800134BB1016851E8001F83
:104D3000026821F4807142E80013002BDAD1016887
:104D400051E8021F026821F0010142E80213C3B3D7
:104D5000016851E8021F026821F0010142E80213D4
:104D60007BB3016851E8021F026821F0010142E8AB
:104D7000021333B3016851E8021F026821F00101F8
:104D800042E80213002BDAD11BE000BF016851E8B2
:104D9000021F026821F0400142E80213DBB1016802
:104DA00051E8021F026821F0400142E8021393B16A
:104DB000016851E8021F026821F0400142E8021335
:104DC0004BB1016851E8021F026821F0400142E83E
:104DD0000213002BDAD12021C0F8801000210166D7
:104DE000016851E8001F026821F0100142E8001339
:104DF000DBB1016851E8001F026821F0100142E8B0
:104E0000001393B1016851E8001F026821F01001FE
:104E100042E800134BB1016851E8001F026821F01D
:104E2000100142E80013002BDAD1416F0446084616
:104E3000FDF7A8FA204602214166B0F85810B0F8F4
:104E40005A20891A89B2BDE87040FFF7C5BE00BF7D
:104E500001230B62D0F8843043F00103C0F88430A2
:104E600093070AD5BCF1000F07D002230B62D0F8DC
:104E7000843043F00403C0F8843053070AD5BCF1F2
:104E8000000F07D004230B62D0F8843043F00203F4
:104E9000C0F8843013070AD55CEA0E0307D0082354
:104EA0000B62D0F8843043F00803C0F88430130557
:104EB0000BD516F0806308D04FF400630B62D0F876
:104EC000843043F02003C0F88430D0F88430002BC5
:104ED0003FF4D8AE920608D5BEF1000F05D0826E21
:104EE0001AB10446904721682046D0F8842089688A
:104EF00002F0280201F04001891807D10446FFF7AB
:104F00006FFE0020C4F8840070BD00BF016851E846
:104F1000001F026821F4907142E80013BBB30168DE
:104F200051E8001F026821F4907142E8001373B346
:104F3000016851E8001F026821F4907142E80013F3
:104F40002BB3016851E8001F026821F4907142E818
:104F50000013002BDAD11AE0016851E8021F026841
:104F600021F0010142E80213DBB1016851E8021FA0
:104F7000026821F0010142E8021393B1016851E88F
:104F8000021F026821F0010142E802134BB10168DF
:104F900051E8021F026821F0010142E80213002BD0
:104FA000DAD1016E012924D1016851E8001F02689D
:104FB00021F0100142E80013DBB1016851E8001F45
:104FC000026821F0100142E8001393B1016851E832
:104FD000001F026821F0100142E800134BB1016884
:104FE00051E8001F026821F0100142E80013002B75
:104FF000DAD12021C0F880100021016602688166A4
:105000009168490640F17E80016851E8021F0268FC
:1050100021F0400142E80213DBB1016851E8021FB0
:10502000026821F0400142E8021393B1016851E89F
:10503000021F026821F0400142E802134BB10168EF
:1050400051E8021F026821F0400142E80213002BE0
:10505000DAD1416F002955D046F2F112C0F60002B4
:10506000044608468A63FDF7B7F900283FF40AAE04
:10507000606F816BBDE87040084700BF51067FF547
:1050800001AE16F0400108BF70BD00BF016851E8D5
:10509000001F026821F0400142E80013DBB1016803
:1050A00051E8001F026821F0400142E8001393B16B
:1050B000016851E8001F026821F0400142E8001336
:1050C0004BB1016851E8001F026821F0400142E83D
:1050D0000013002BDAD12021C1670021C166BDE891
:1050E000704000F017BB00BF8C427FF4CBAD12685C
:1050F00092067FF5C7AD02224266BDE87040FFF719
:105100006BBD00BFBDE87040FFF76ABD891A00BFE4
:10511000026852E8002F036822F4907243E80026E8
:10512000BEB3026852E8002F036822F4907243E88D
:10513000002676B3026852E8002F036822F49072CA
:1051400043E800262EB3026852E8002F036822F4D9
:10515000907243E80026002EDAD11AE0026852E885
:10516000022F036822F0010243E80226DEB1026842
:1051700052E8022F036822F0010243E8022696B1AA
:10518000026852E8022F036822F0010243E8022677
:105190004EB1026852E8022F036822F0010243E890
:1051A0000226002EDAD12022C0F8802000220266DA
:1051B000826600BF026852E8002F036822F01002E6
:1051C00043E80026DEB1026852E8002F036822F0AF
:1051D000100243E8002696B1026852E8002F0368E7
:1051E00022F0100243E800264EB1026852E8002F78
:1051F000036822F0100243E80026002EDAD10222D2
:1052000089B24266BDE87040FFF7E6BC10B5C0B198
:105210000446C06F28B9002084F87800204600F0CA
:1052200025F82420E0672068616A026822F0010204
:10523000026011B1204600F0B3FE204601F0C8F92B
:1052400010B1012010BD00BF2168486820F49040D3
:105250004860886820F02A008860086840F00102F1
:1052600020460A60BDE8104000F00EBF2DE9F04373
:105270009BB0044600201A90CDE91800CDE9160035
:1052800001A85421FBF70AFB206844F20041C4F254
:10529000000188426ED043F60001C4F20101884249
:1052A00040F0C6800120019001A8FDF709FC00280C
:1052B00018BFFDF761F841F24C00C4F202004169E9
:1052C00040F2440841F4804141614169022601F401
:1052D0008041009100990168002741F001010160BF
:1052E000006816A900F00100009000984FF4C0601B
:1052F00016900320199007201A904FF09040C4F2A6
:10530000020817961897FDF7F1F940F6A81508F16D
:105310001400C2F2000585E8C1004FF400504FF0C0
:105320008009202128622846C5E90379C5E9057767
:10533000E961FDF7DBF8002818BFFDF71DF8656788
:10534000AC6240F6F015C2F20005102005F108012C
:1053500081E881022846C5E90086C5E90577C5E9E7
:105360000777FDF7C3F800284FF0250618BFFDF7B3
:1053700003F853E04FF0020801A8CDF80480FDF7D0
:105380009FFB002818BFFCF7F7FF41F24C00C4F266
:105390000200C16816AD41F40031C160C168002748
:1053A00001F40031009100990168032641F00101E8
:1053B00001600068294600F0010000900098042078
:1053C000CDE9160807201A904FF0904018971996CB
:1053D000FDF78CF94FF40040CDE916084FF09040EE
:1053E0002946CDE918761A96FDF780F94420C4F2D3
:1053F000020040F638252830C2F200051B21102695
:10540000802285E8C3002846C5E90427C5E9067758
:105410002F62FDF76BF808B1FCF7AEFF30460021B4
:1054200000222567AC62FDF7C1FA3046FDF7ACFA01
:105430001BB0BDE8F0830000D0F88030202B0BD1EA
:1054400094460A4600294FF0010118BFBCF1000F35
:1054500006D10846704700BF02210846704700BFCA
:10546000B0B54FF0000EC0F860E0036848F20004E9
:10547000C4F20004A34202D05B681B0232D4222192
:105480004265A0F858C0C0F884E0C0F88010436FAF
:10549000002B51D046F26D31C0F6000146F2E544D2
:1054A00046F2F91E03F12C07C0F60004C0F6000E08
:1054B00087E81240016800259D63243104461846A0
:1054C0006346FDF77DF801462046A9B31021C0F8D8
:1054D00084102021C0F880100121BDE8B0400846AA
:1054E000704700BF036853E8003F046843F08063DF
:1054F00044E800310029C2D0016851E8001F036868
:1055000041F0806143E80014002CB8D0016851E8F4
:10551000001F036841F0806143E80014002CAED006
:10552000016851E8001F036841F0806143E80014FE
:10553000002CD7D1A3E700BF016929B3016851E866
:10554000001F026841F4807142E80013E3B1016872
:1055500051E8001F026841F4807142E800139BB1DA
:10556000016851E8001F026841F4807142E80013AD
:1055700053B1016851E8001F026841F4807142E8AC
:105580000013002BDAD100BF016851E8021F026846
:1055900041F0010142E80213BBB3016851E8021F68
:1055A000026841F0010142E8021373B3016851E857
:1055B000021F026841F0010142E802132BB30168A7
:1055C00051E8021F026841F0010142E80213002B7A
:1055D000DAD11AE0016851E8021F026841F0400187
:1055E00042E80213DBB1016851E8021F026841F092
:1055F000400142E8021393B1016851E8021F0268BA
:1056000041F0400142E802134BB1016851E8021F2A
:10561000026841F0400142E80213002BDAD1002178
:10562000BDE8B04008467047704700007047000072
:10563000C36F202B0AD1944600294FF0010218BFF6
:10564000BCF1000F06D11046704700BF0222104681
:10565000704700BFB0B500222123C164A0F850C03C
:10566000A0F852C0C0F88420C367036F23B346F28A
:10567000F915C0F6000546F21D5446F2C95E5D6399
:105680000568C0F60004C0F6000EC3E90B4E9A632D
:1056900005F12802044618466346FCF791FF0146CF
:1056A000204649B11021C0F884102021C167012291
:1056B000BDE8B04010467047016840220A6200BF52
:1056C000016851E8021F026841F0800142E80213BC
:1056D000DBB1016851E8021F026841F0800142E835
:1056E000021393B1016851E8021F026841F0800182
:1056F00042E802134BB1016851E8021F026841F011
:10570000800142E80213002BDAD10022BDE8B0404C
:1057100010467047006844F20041C4F2000188421C
:1057200016D043F60001C4F20101884218BF704749
:1057300040F2C000C2F20000C17831B102790139F3
:10574000013202F003020271C17000214171704701
:1057500001F0D4BA70470000FEE7000040F2B0004C
:10576000C2F2000000787047F0B581B040F2B00797
:10577000C2F200073B781BB1012001B0F0BD00BFB1
:1057800006460D461446FDF799F87968401A7228C6
:105790004FF0010015D33870FDF790F8786040F6AF
:1057A0001837C2F2000738460021FEF787FD384659
:1057B0000421FEF783FD30462946224600F0BEF95B
:1057C000002001B0F0BD0000B0B540F6CC24C2F21C
:1057D0000004204600210025FFF718F9206840F654
:1057E00018344563C2F200042068016841F00401E6
:1057F00001606FF00101016120460021FEF7B4FC59
:1058000020460421FEF7B0FC2068C16841F0010188
:10581000C16000F053FA40F2B000C2F2000005701F
:10582000B0BD000070B540F2B005C2F200052878A6
:10583000022816D1FDF742F8A968401A052838BF9A
:1058400070BD00F03BFA40F61834C2F20004204666
:1058500000210026FEF788FC20460421FEF784FC88
:105860002E7070BDFEE70000FEE7000070470000EC
:1058700010B540F20C04C2F20004207E214600283C
:105880001CBF0138207648F21C00C0F6000001F071
:1058900063FE616947F6A970C0F6000001F05CFE86
:1058A000217E627E48F26200C0F6000001F054FEE4
:1058B000A17E48F26F00C0F60000BDE8104001F084
:1058C0004BBE0000002808BF704710B540F20C0422
:1058D000C2F20004014620461022FBF706F8002021
:1058E000207448F21C00C0F60000214601F034FE8E
:1058F000616947F6A970C0F6000001F02DFE217E17
:10590000627E48F26200C0F6000001F025FEA17E32
:1059100048F26F00C0F60000BDE8104001F01CBE68
:1059200010B540F20C0400F01F00C2F20004A07693
:1059300048F21C00C0F60000214601F00DFE61692E
:1059400047F6A970C0F6000001F006FE217E627ED7
:1059500048F26200C0F6000001F0FEFDA17E48F2B0
:105960006F00C0F60000BDE8104001F0F5BD00007A
:1059700010B540F20C0420F07F40C2F200046061D8
:1059800048F21C00C0F60000214601F0E5FD616907
:1059900047F6A970C0F6000001F0DEFD217E627EB0
:1059A00048F26200C0F6000001F0D6FDA17E48F288
:1059B0006F00C0F60000BDE8104001F0CDBD000052
:1059C000A0F25923A0F2DD5C40F257204FF0FF32E5
:1059D000844538BF0122834238BF0022012911D1FA
:1059E000834231D340F2562084452DD940F28800BD
:1059F000C2F20000002141800C218171012141711E
:105A00000171704740F28801C2F200010879C007B5
:105A100032D140F25720834203D340F256208445CE
:105A20002ED8D0B24A792CA303EB4202105C022894
:105A300008BF70474A79032A22D048714879012863
:105A400026D0E8B9002024E040F28800C2F200002D
:105A5000D1B2427921A303EB4202515C022916D054
:105A60004279032AC6D04171417901291ED000290B
:105A7000C0D100211BE000BF087900F0FE0005E066
:105A8000002048800C2088710120487108717047FF
:105A900001204A88104348808879A8B1488840008E
:105AA0004880887901388871704700BF0121428899
:105AB00011434180817959B1418849004180817900
:105AC00001398171704700BF01200870704700BF25
:105AD00001210170704700BF0201010300030200B1
