:020000040800F2
:10000000D00700205902000859200008512000089C
:100010005520000861030008592300080000000073
:100020000000000000000000000000002523000880
:1000300065030008000000005D2000082923000877
:1000400073020008730200087302000873020008BC
:1000500073020008730200087302000873020008AC
:10006000730200087302000873020008730200089C
:10007000730200087302000873020008730200088C
:10008000730200087302000873020008730200087C
:10009000730200087302000873020008730200086C
:1000A000412300084D230008730200087302000872
:1000B0007302000800000000000000007302000846
:1000C0007302000800000000000000007302000836
:1000D0000000000073020008730200080000000026
:1000E0007302000873020008000000000000000016
:1000F0000000000000000000000000000000000000
:100100000000000000000000000000007302000872
:1001100000000000000000007302000873020008E5
:1001200073020008730200087302000873020008DB
:100130007302000800000000000000000000000042
:1001400073020008730200087302000873020008BB
:1001500073020008730200087302000873020008AB
:100160007302000873020008730200080000000018
:100170007302000873020008000000000000000085
:1001800073020008730200087302000800F002F80E
:1001900000F052F814A696E8000CB244B344DA45D5
:1001A00001D100F049F8BAE80F000FA696E8300038
:1001B000A5EB040504EB0607AAEB0704A7F101076A
:1001C0004FEA15154FEA3414A4F10104AC4201D3EF
:1001D00000F032F813F0010F18BFFB1A43F00103CF
:1001E00000F001F8DBE71847FC2400001C250000A4
:1001F000103A24BF78C878C1FAD8520724BF30C853
:1002000030C144BF04680C607047000070470000B4
:100210000023002400250026103A28BF78C1FBD80F
:10022000520728BF30C148BF0B6070471FB502F0AE
:100230002CFA1FBD10B510BD00F058F81146FFF79D
:10024000F5FF02F08BF800F076F803B4FFF7F2FF49
:1002500003BC00F07DF800000948804709480047CA
:10026000FEE7FEE7FEE7FEE7FEE7FEE7FEE7FEE766
:10027000FEE7FEE704480549054A064B70470000C3
:100280002D2300088D010008D0010020D007002098
:10029000D0030020D00300204FF0000200B5134629
:1002A00094469646203922BFA0E80C50A0E80C5096
:1002B000B1F12001BFF4F7AF090728BFA0E80C5047
:1002C00048BF0CC05DF804EB890028BF40F8042B40
:1002D00008BF704748BF20F8022B11F0804F18BFAD
:1002E00000F8012B7047704770477047754600F063
:1002F0002BF8AE4605006946534620F007008546B8
:1003000018B020B5FFF7B6FFBDE820404FF000065B
:100310004FF000074FF000084FF0000BAC46ACE880
:10032000C009ACE8C009ACE8C009ACE8C00921F0DC
:1003300007018D46704710B50446AFF30080204694
:10034000BDE81040FFF781BF00487047180000204B
:1003500001491820ABBEFEE72600020070470000EE
:10036000FEE7000070470000EFF3108072B600BF98
:10037000FEE70000B0B5044600F0F2F8054640F292
:100380000800C2F200000078611C18BF044400BFDE
:1003900000F0E6F8401BA042FAD3B0BD2DE9F04FC3
:1003A00083B00C68002C00F0CF8000F1200240F2F6
:1003B000004E009240F60002C4F2010EC4F60002A4
:1003C0000723002500274FF00008904208BF0223B2
:1003D00001934DE040F20042C4F60002DDF80490C3
:1003E000904208BF4FF0010905F00C060F22B24001
:1003F0002CEA020209FA06F64FEA9803324344F85F
:100400002320DEF808204B6842EA0A0640F20C4C32
:10041000DC0258BF22EA0A06CEF80860C4F2010CDA
:10042000DCF800209C0242EA0A0658BF22EA0A06CB
:10043000CCF80060DEF804209C0342EA0A0658BFAC
:1004400022EA0A06CEF80460DEF80020DB0342EA66
:100450000A0658BF22EA0A06CEF800600C6808F1C6
:10046000010834FA08F207F1020705F104056BD020
:10047000012202FA08FC14EA0C0AEFD0D1F804B009
:1004800003230BF00304621E03FA07F6012A6FEA46
:10049000060911D88268CE6802EA0902BE403243DA
:1004A00082604268CBF3001622EA0C0206FA08F6D4
:1004B0003243426004E000BF032C01D103241EE05C
:1004C000C2688E6802EA0902BE403243022CC26052
:1004D00015D16FF0030202EA580B009A05F01C04D4
:1004E00052F80BC00F230E69A3402CEA0303A64069
:1004F000334342F80B30D1F804B00BF00304026828
:1005000004FA07F302EA09021A431BF4403F0260AF
:10051000A4D041F26003C4F202031A68AEF57E74FF
:1005200042F001021A601A68B0F1904F02F0010225
:100530000292029A28F0030254F802C07FF44AAFF4
:100540004FF0000950E700BF03B000F000B830BC26
:10055000BDE8C08F1823002A08BF2823C150704768
:1005600040F2C810C2F200000068704740F2080074
:1005700040F2C811C2F20000C2F2000100780A681D
:10058000104408607047000080B5032000F08CF82C
:10059000002000F009F800281CBF012080BD00F0F9
:1005A0002BF8002080BD0000B0B540F20805C2F273
:1005B00000052978F1B1044640F21000C2F20000B3
:1005C0004FF47A720068B2FBF1F1B0FBF1F000F089
:1005D000E3FD01460F2C4FF001000AD8002918BF97
:1005E000B0BD4FF0FF302146002200F031F800206E
:1005F0006C60B0BD0120B0BD82B041F25800C4F2C1
:100600000200816841F001018160816801F001010F
:1006100001910199016841F080510160006800F08A
:1006200080500090009802B070470000002848BF3A
:10063000704700F01F01012202FA01F11C2202EAB8
:10064000D0004EF20012CEF200028150704700003E
:1006500010B54EF60C5CCEF2000CDCF80030C3F3A3
:10066000022E8EF00704042C28BF0424BEF10303DD
:100670004FF0FF3E0EFA04F438BF0023A143994027
:100680000EFA03F39A43114300F00F0200F16043A6
:100690000901043A03F564436244002848BF02F1AB
:1006A0000C03197010BD00004EF60C51CEF2000183
:1006B0000A684FF6FF031A4060F30A2242F0806096
:1006C00040F0FD700860704747F20001C4F200017D
:1006D0000A68B0F5007F02F4C06031D1B0F5007F48
:1006E0002CD00868012262F34A20086040F2100012
:1006F000C2F200000068322250434DF68362C4F219
:100700001B32A0FB0202900C4A69520511D5421C13
:100710000FD04A6952050CD558B14A69520508D51F
:10072000012806D04A69520503D50228A0F1040029
:10073000EAD14869400544BF032070470020704754
:10074000B0F5806FFAD00868022262F34A20086090
:100750000020704747F20000C4F20000006800F477
:10076000C06070472DE9F04381B0002800F08C8014
:1007700042F20009C4F202090446D9F8000000F070
:10078000070088420CD2D9F8000020F00700084387
:10079000C9F80000D9F8000000F00700884273D1C2
:1007A000206841F2080610F00202C4F202060AD0E4
:1007B000A368376807F0F007BB4204D9376827F011
:1007C000F0073B433360C30734D0606856F8082C09
:1007D00050B1022804D003280AD192010AD453E070
:1007E000920307D450E000BF920703D44CE000BF4F
:1007F000520549D58846316821F00301084330602D
:10080000FFF7AEFE054641F2883700BF30686168E9
:1008100000F00C00B0EB810F08D0FFF7A1FE401BE9
:10082000B842F3D9032001B0BDE8F0832068414607
:1008300000F0020252B1A268336803F0F0039A425A
:1008400004D2336823F0F0031A433260D9F8002051
:1008500002F007028A420CD9D9F8002022F00702E0
:100860000A43C9F80020D9F8002002F007028A42A2
:100870000AD141070CD4000712D43068716810F017
:100880000C0019D11EE000BF012001B0BDE8F083CB
:100890003168E26821F4E061114331600007ECD572
:1008A0003068216920F4605040EAC100306030684F
:1008B000716810F00C0005D00C282BD101F0030159
:1008C000012927D156F8081C042211F008016FF005
:1008D000070108BF8C21715808BF0822D14042F29D
:1008E000B46201F00F01C0F6000252F82110002896
:1008F0000A4618BF00220C2838D1706800F00300A7
:10090000022811D0032804BF41F20021C0F27A016D
:100910000EE000BF04281FD0082823D141F2002296
:10092000C0F27A0222E000BF42F20041C0F2F401BC
:1009300070687268C0F30210C2F3062251437268F5
:100940000130B1FBF0F0C2F34161022202EB410140
:10095000B0FBF1F20AE000BF42F20042C0F2F40242
:1009600004E000BF002200210C28C6D0306842F20B
:10097000A461C0F30310C0F60001085C00F01F0082
:1009800022FA00F140F20C00C2F2000040F2100224
:100990000068C2F20002116001B0BDE8F043FFF749
:1009A00003BE0000002804BF012070472DE9F0437A
:1009B00083B041F200060446C4F20206B068F16852
:1009C000227800F00C09D00601F003081ED420782C
:1009D000C00700F08880B9F1080F00F07D80B9F100
:1009E0000C0F08BFB8F1030F76D061683068B1F51D
:1009F000803F07D0B1F5A02F40F0528240F4802014
:100A00003060306840F48030306053E2B9F1000F5C
:100A10001CD0B9F10C0F08BFB8F1010F16D0A169B5
:100A20003068002900F0A08140F001003060FFF73D
:100A300097FD05463068800700F1A881FFF790FD1B
:100A4000401B02284FF00300F4D960E330688007B0
:100A500003D5A069002800F00F83256A30680007DD
:100A600000F14A81D6F89400000900F0F0008542B8
:100A700000F248813068B9F1000F40F008003060A2
:100A8000306820F0F00040EA050030607068E169ED
:100A900020F47F4040EA0120706040F0B882B06DE1
:100AA000C00000F15582B06D40F08050B065B06D6F
:100AB00000F0805002900298FFF74CFEB16D21F0DB
:100AC0008051B165B0F5007F00F04882802D40F282
:100AD000858203208DE200BF3068800303D5606803
:100AE000002800F0C982207880072DD5B9F1040FC5
:100AF0001CD0B9F10C0F08BFB8F1020F16D0E16895
:100B00003068002900F0E68140F480703060FFF723
:100B100027FD0546306840050FD4FFF721FD401B37
:100B200002284FF00300F5D9F1E200BF306840051C
:100B300003D5E068002800F09F827068216920F0EA
:100B4000F85040EA016070602078000760D4207897
:100B5000400779D42078800600F1B280A06A00288E
:100B600000F01683022840F02381F068E16A00F06B
:100B700003028A4240F03481226B6FF00F0300F0D1
:100B8000700103EB0212914240F02A81616B00F484
:100B9000FE42B2EB012F40F02381A16B00F07842BE
:100BA000B2EBC16F40F01C81E26B0023CFF6E07323
:100BB00003EA025200F4C001A2F50012914240F093
:100BC0000F81216C4FF07E4202EA016100F0C060AB
:100BD00001F17E41884240F003813068800100F1DC
:100BE000D782306840F080703060F06840F08070EC
:100BF000F060FFF7B5FC04463068800100F1C88260
:100C0000FFF7AEFC001B02284FF00300F4D97EE290
:100C10006169D6F89400002900F0908040F001004E
:100C2000C6F89400FFF79CFC054600BFD6F8940078
:100C300080078CD4FFF794FC401B0228F6D90320D0
:100C400003B0BDE8F08300BFB06D5FEAC00808D410
:100C5000B06D40F08050B065B06D00F080500090F5
:100C6000009847F20007C4F200073868C00513D4A3
:100C7000386840F480703860FFF772FC054600BFAA
:100C80003868C00508D4FFF76BFC401B02284FF002
:100C90000300F5D93BE200BFA168D6F89000012916
:100CA00008D0052940F0DC8040F00400C6F8900030
:100CB000D6F8900040F00100C6F89000DCE000BFDC
:100CC000616AD6F89800002900F0B48040F0010075
:100CD000C6F89800FFF744FC054600BFD6F8980018
:100CE00080073FF53BAFFFF73BFC401B02284FF06E
:100CF0000300F3D90BE200BF306800F0F00085423A
:100D00007FF6B8AEB06DC00000F18680B06D40F0E7
:100D10008050B065B06D00F0805001900198FFF7F1
:100D200019FDB16D21F08051B165B0F5007F79D02A
:100D3000802D40F2E1800320E9E000BF20F00100B7
:100D4000C6F89400FFF70CFC054600BFD6F89400E7
:100D500080077FF5FCAEFFF703FC401B02284FF035
:100D60000300F3D9D3E100BF20F001003060FFF7AA
:100D7000F7FB0546306880077FF529AEFFF7F0FBEB
:100D8000401B02284FF00300F4D9C0E1306840F066
:100D9000080030603068D4E9071220F0F0001043FA
:100DA0003060706820F47F4040EA012070600EE6F9
:100DB000B9F10C0F00F06081306820F08070306075
:100DC000FFF7CEFB044600BF3068800140F1EA80A7
:100DD000FFF7C6FB001B02284FF00300F4D996E191
:100DE000B9F10C0F00F048813068400100F14481F6
:100DF000306820F080703060FFF7B2FB054600BF1E
:100E00003068800140F18681FFF7AAFB401B022871
:100E10004FF00300F4D97AE1FFF79CFCB0F5007FB6
:100E20007FF486AF812D71D30120A02D88BF0220D1
:100E30006DE000BF20F00100C6F89800FFF790FBBE
:100E4000054600BFD6F8980080077FF587AEFFF70C
:100E500087FB401B02284FF00300F3D957E100BF86
:100E600020F00100C6F89000D6F89000002920F08C
:100E70000400C6F8900079D0FFF772FB054641F2F6
:100E8000883700BFD6F89000800700F18180FFF717
:100E900067FB401BB842F5D9032003B0BDE8F083DF
:100EA00020F4803030603068002920F480203060E9
:100EB00000F08480FFF754FB054600BF30688003D4
:100EC0003FF511AEFFF74CFB401B64284FF00300C9
:100ED000F4D91CE120F480703060FFF741FB054637
:100EE000306840057FF530AEFFF73AFB401B022823
:100EF0004FF00300F4D90AE1A5F17000B0FA80F0D8
:100F00004009802D08BF022001E000BF002042F20E
:100F10000001C4F202010A6822F0070202440A60DA
:100F2000096801F00701814240F0A680306840F076
:100F3000080030603068D4E9071220F0F000104358
:100F40003060706820F47F4040EA012070605EE00D
:100F5000FFF700FCB0F5007F7FF4B8AD812D47D3DB
:100F60000120A02D88BF022043E000BFFFF7F8FA60
:100F7000054641F2883700BFD6F89000800707D5B4
:100F8000FFF7EEFA401BB8424FF00300F4D9BEE081
:100F9000B8F1000F3FF5DEADB06D20F08050B065C8
:100FA000D8E500BFF0684FF6FC71CFF6EE6108405F
:100FB000F060002003B0BDE8F08300BFFFF7D0FA77
:100FC000054600BF306880037FF58DADFFF7C8FA96
:100FD000401B64284FF00300F4D998E0A5F170009D
:100FE000B0FA80F04009802D08BF022001E000BF68
:100FF000002042F20001C4F202010A6822F0070256
:1010000002440A60096801F00701814234D1B068E6
:10101000F16810F00C0005D00C2831D101F003016B
:1010200001292DD1314651F8942B12F00802324695
:1010300008BF0A464FF00401126808BF082122FACF
:1010400001F142F2B46201F00F01C0F6000252F861
:10105000211000280A4618BF00220C283CD1F06855
:1010600000F00300022815D0032804BF41F200213C
:10107000C0F27A0112E000BF012003B0BDE8F083A6
:1010800004281FD0082823D141F20022C0F27A029E
:1010900022E000BF42F20041C0F2F401F068F268C1
:1010A000C0F30210C2F306225143F2680130B1FBD3
:1010B000F0F0C2F34161022202EB4101B0FBF1F218
:1010C0000AE000BF42F20042C0F2F40204E000BFB6
:1010D000002200210C28C2D0B06842F2A461C0F303
:1010E0000310C0F60001085C00F01F0022FA00F1B6
:1010F00040F20C00C2F2000040F210020068C2F29E
:1011000000021160FFF750FA00283FF460AC03B012
:10111000BDE8F083F06848F28C01C0F29D1104F143
:101120002C0700EA010C8ECF6FF00F00D4E90F54AA
:1011300000EB02100022CFF6E07241EA0C0102EA55
:1011400005520843A2F500124FF07E4540EA032005
:1011500005EA0465104305F17E4540EAC76028436F
:10116000F060306840F080703060F06840F080706F
:10117000F060FFF7F5F904463068800108D4FFF706
:10118000EFF9001B02284FF00300F5D9BFE700BFBD
:10119000002003B0BDE8F083411E0020B0EB116FCA
:1011A0001CBF012070474EF21002CEF200025160C7
:1011B0004EF62351CEF20001F0230B700721906010
:1011C00011607047704700007047000070470000D2
:1011D00090F83C20012A04BF0220704710B5D1E9E5
:1011E0000232D1E900CE22F47C5223F470531A4328
:1011F00048F2FF73CFF6F07303EA0E0342EA030EE0
:101200000A692CF477234EEA030C22F476224B6908
:1012100042EA0C021A438B6A22F4742223F47023EC
:1012200042EA030C8B69D0F800E042F60042C4F2B7
:10123000010296454CEA03430FD123F07C72D1E9B9
:10124000073C496A0024CFF6F04404EA01511143F7
:1012500023F00072114341EA0C030021CEF8443020
:1012600080F83C10002010BD90F83C20012A4FF07F
:1012700002022DD010B580F83D20026842F6004CE5
:101280005368D2F808E0C4F2010C624503D14C68FF
:1012900023F4700323430C6823F070032343B2F15B
:1012A000804F536007D044F20003C4F201039A4216
:1012B00001D0624504D189682EF080031943916002
:1012C0000121002280F83D1080F83C20BDE810404C
:1012D00010467047002804BF01207047B0B590F851
:1012E0003D1031B9002180F83C10044600F068F848
:1012F0002046022180F83D10016842F6004E0A683F
:10130000C4F2010E714502D0B1F1804F03D184685F
:1013100022F07002224343F6FF74C4F2010444F247
:10132000004CA142C4F2010C06DCB1F1804F0BD09D
:10133000714509D00CE000BF614505D044F20004BE
:10134000C4F20104A14203D1046922F44072224391
:101350004368C56884697145CD628B6218BF614579
:1013600026D143690B630B6822F0800243F004032B
:1013700022430B6001234B610A6080F8483080F8FB
:101380003E3080F83F3080F8403080F8413080F8BF
:10139000423080F8433080F8443080F8453080F89F
:1013A000463080F8473080F83D300020B0BD00BFA7
:1013B00044F20003C4F201039942D2D0D3E7000003
:1013C00010B582B0006844F20041C4F201018842C5
:1013D00014D044F20001C4F20101884228D141F244
:1013E0006000C4F202000168182441F480310160F9
:1013F000006800F48030019001980DE041F2600037
:10140000C4F202000168192441F40031016000684F
:1014100000F4003000900098204600210022FFF7E1
:1014200017F9204602B0BDE81040FFF7FFB800BF33
:1014300002B010BD90F83D10012929D1022180F899
:101440003D100168C868B1F1804F40F00100C860EC
:101450000BD044F20000C4F20100814205D042F6F4
:101460000040C4F2010081420CD188680722C0F21A
:1014700001020240062A4FF000000AD0B2F5803F78
:1014800008BF7047086840F00100086000207047FE
:10149000012070470146006841F21113C268C0F292
:1014A000110322F00102C260026A1A4204D0012232
:1014B000002081F83D207047026A40F244431A42FE
:1014C000F5D1026822F0010202600122002081F8B9
:1014D0003D20704790F83C20012A4FF0020200F0B6
:1014E000878010B580F83D20D0F800E08822DEF833
:1014F0000830CFF6FE721A40CEF808200B684F2B4A
:1015000040DC1F2B5EDD202B60D0302B5ED0402BCB
:1015100040F0EC80D1F804C0C968DEF82030DEF875
:10152000202042F60044C4F20104A64522F0010244
:10153000CEF820200BD044F20042C4F201029645BE
:1015400005D044F20002C4F20102964505D1DEF84E
:10155000202022F00402CEF82020DEF8182022F00D
:10156000F00242EA011123F00A0242EA0C02CEF82C
:101570001810CEF82020DEF8081041F0470121F0C5
:1015800030012AE06F2B35DDB3F5005F00F09A8063
:10159000B3F5805F23D0702B40F0A880D1E901C360
:1015A000C968DEF8082043EA0C0322F47F4243EACC
:1015B00001211143CEF80810DEF8081041F0770140
:1015C0000BE000BF13B1102B40F09080DEF8081044
:1015D00021F07001194341F00701CEF808100022F4
:1015E000012180F83D10002180F83C10BDE810403A
:1015F00010467047502B2DD0602B77D1D1F804C006
:10160000C968DEF82030DEF8202042F60044C4F23B
:101610000104A64522F01002CEF8202005D1DEF804
:10162000202022F04002CEF82020DEF8182022F4FC
:10163000704242EA013123F0A00242EA0C12CEF8D5
:101640001810CEF82020DEF8081041F0670121F0D4
:101650001001C2E7D1F804C0C968DEF82030DEF816
:10166000202042F60044C4F20104A64522F0010203
:10167000CEF820200BD044F20042C4F2010296457D
:1016800005D044F20002C4F20102964505D1DEF80D
:10169000202022F00402CEF82020DEF8182022F0CC
:1016A000F00242EA011123F00A0242EA0C02CEF8EB
:1016B0001810CEF82020DEF8081041F0570121F074
:1016C00020018AE7D1E901C3C968DEF8082043EAAE
:1016D0000C0322F47F4243EA01211143CEF80810A3
:1016E000DEF8081041F4804177E700BF012277E778
:1016F00070470000F0B581B004460068C56806690F
:10170000B10717D515F0020114D06FF00201016185
:10171000012121778069800704D02046FFF7E8FF88
:1017200006E000BF204600F015F9204600F0A0FBBF
:1017300000202077700719D515F0040016D0206816
:101740006FF00401016102212177806910F4407F6C
:1017500004D02046FFF7CCFF06E000BF204600F093
:10176000F9F8204600F084FB00202077300717D5D9
:1017700015F0080014D020686FF008010161042101
:101780002177C069800703D02046FFF7B1FF05E04D
:10179000204600F0DFF8204600F06AFB00202077AA
:1017A000F00619D515F0100016D020686FF0100162
:1017B000016108212177C06910F4407F04D02046E0
:1017C000FFF796FF06E000BF204600F0C3F8204672
:1017D00000F04EFB00202077F00718BF15F0010045
:1017E00006D020686FF001010161204600F0C6FBC1
:1017F00016F4025F05F0800718BF002F02D1F00534
:1018000009D410E020686FF4025101612046FFF70F
:10181000DBFCF00507D537B120686FF480710161FA
:101820002046FFF7CFFC700609D515F0400006D022
:1018300020686FF040010161204600F007FCB0060F
:101840000CD515F0200009D021686FF02002204649
:101850000A6101B0BDE8F040FFF7B8BC01B0F0BDCF
:1018600080B586B0006844F20041C4F201018842AC
:101870004FF000010591CDE90311CDE9011115D01B
:1018800044F20001C4F2010188422BD141F24C0024
:10189000C4F20200016841F0010101600068042106
:1018A00000F001000090009800200EE041F24C0092
:1018B000C4F20200016841F00101016000684021AA
:1018C00000F0010000900098032001910221029194
:1018D0000021CDE903100E20059001A94FF09040A2
:1018E000FEF75CFD06B080BD10B50446022084F80A
:1018F0003D00206841F21112016AC0F2110211424A
:1019000008D1016A40F24442114203D1016821F03A
:1019100001010160204600F01FF80021002084F83A
:10192000481084F83E1084F83F1084F8401084F882
:10193000411084F8421084F8431084F8441084F86D
:10194000451084F8461084F8471084F83D1084F858
:101950003C1010BD704700007047000090F83C300C
:10196000012B04BF022070474FEAB202052A00F2A1
:10197000C9812DE9F041DFE812F007002D01A10037
:10198000ED006100790100BF036842F600461D6A60
:101990001A6A25F0020522F001021A621A46D3F8EB
:1019A00004C052F818EF8F68D1F80080C4F2010625
:1019B000B34245EA07050BD044F20047C4F20107E1
:1019C000BB4205D044F20007C4F20107BB4207D175
:1019D0001F6A25F0080527F004071F62CF683D4302
:1019E000B3420BD044F20046C4F20106B34205D024
:1019F00044F20006C4F20106B34206D1D1E90567FC
:101A00002CF44074264346EA070C4FF68C74CFF64C
:101A1000FE740EEA040747EA0807C3F804C09F6192
:101A20004F6809695F631D629F6947F008079F61FE
:101A30009F6927F004079F6159E100BF036842F6E0
:101A40000047D3F820C01A6AC4F2010722F480329A
:101A50001A621A465D6852F8544FD1F800E08E6859
:101A6000BB420BD044F20047C4F20107BB4205D091
:101A700044F20007C4F20107BB4204D14F6925F4C8
:101A8000803545EA07252CF4003747EA06474FF62C
:101A90008C76CFF6FE760336264046EA0E065D606B
:101AA0005E654E6809699E651F625F6D47F00807B5
:101AB0005F655F6D27F004075F6518E1036842F614
:101AC00000461C6A1A6A24F4007422F480721A62B6
:101AD0001A465D6852F81CEF8F68D1F800C0C4F256
:101AE0000106B34244EA072408D11F6A24F40064C3
:101AF00027F480671F62CF6844EA0724B3420BD003
:101B000044F20046C4F20106B34205D044F2000696
:101B1000C4F20106B34206D1D1E9056725F4405568
:101B20003E4345EA06154FF68C76CFF6FE760EEA72
:101B3000060747EA0C075D60DF614F680969DF63EC
:101B40001C62DF6947F00807DF61DF6927F00407DF
:101B5000DF61CCE0036842F60047D3F820C01A6A80
:101B6000C4F2010722F480521A621A465C6852F8E5
:101B70001C5FD1F800E08E68BB420BD044F20047F6
:101B8000C4F20107BB4205D044F20007C4F20107CA
:101B9000BB4204D14F6924F4804444EA87142CF4F6
:101BA000005747EA063748F6FF46CFF6FF662E4055
:101BB00046EA0E265C60DE614E6809691E641F629B
:101BC000DF6947F40067DF61DF6927F48067DF6161
:101BD0008CE000BF036842F600461C6A1A6A24F0D3
:101BE000200422F010021A621A465D6852F818EFBB
:101BF0008F68D1F800C0C4F20106B34244EA07146A
:101C000008D11F6A24F0800427F040071F62CF68C4
:101C100044EA0714B3420BD044F20046C4F2010672
:101C2000B34205D044F20006C4F20106B34206D125
:101C3000D1E9056725F440653E4345EA860548F647
:101C4000FF46CFF6FF660EEA060747EA0C275D60FF
:101C50009F614F6809699F631C629F6947F4006731
:101C60009F619F6927F480679F613FE0036842F6A8
:101C70000047D3F820C01A6AC4F2010722F4801288
:101C80001A621A465D6852F8544FD1F800E08E6827
:101C9000BB420BD044F20047C4F20107BB4205D05F
:101CA00044F20007C4F20107BB4204D14F6925F496
:101CB000802545EA87252CF4001747EA065748F6A1
:101CC000FF46CFF6FF6606F54076264046EA0E262A
:101CD0005D605E654E680969DE651F625F6D47F491
:101CE00000675F655F6D27F480675F6509021368B1
:101CF000194311600021BDE8F041002280F83C202A
:101D0000084670470121002280F83C2008467047B1
:101D100010B50446022084F83D00206841F21112FB
:101D2000016AC0F21102114208D1016A40F2444234
:101D3000114203D1016821F001010160204600F049
:101D400093F80021002084F8481084F83E1084F8AD
:101D50003F1084F8401084F8411084F8421084F851
:101D6000431084F8441084F8451084F8461084F831
:101D7000471084F83D1084F83C1010BD002804BFC3
:101D800001207047B0B590F83D1031B9002180F8BE
:101D90003C10044600F06AF82046022180F83D100D
:101DA000016842F6004E0A68C4F2010E714502D085
:101DB000B1F1804F03D1846822F07002224343F6D0
:101DC000FF74C4F2010444F2004CA142C4F2010CBD
:101DD00006DCB1F1804F0BD0714509D00CE000BF9B
:101DE000614505D044F20004C4F20104A14203D1CC
:101DF000046922F4407222434368C56884697145CE
:101E0000CD628B6218BF614526D143690B630B68B5
:101E100022F0800243F0040322430B6001234B6154
:101E20000A6080F8483080F83E3080F83F3080F813
:101E3000403080F8413080F8423080F8433080F8FC
:101E4000443080F8453080F8463080F8473080F8DC
:101E50003D300020B0BD00BF44F20003C4F20103D6
:101E60009942D2D0D3E700007047000070470000CD
:101E70007047000080B5D9B10B1F4FEAB30E432263
:101E80004FF03F0CBEF1040F38BF0CEBB302825C85
:101E9000012A1CBF012080BDBEF1030F1ED8DFE860
:101EA0000EF00319111500BF022280F83F2018E040
:101EB00090F83E20012A1CBF012080BD022280F83C
:101EC0003E200EE0022280F841200AE0022280F843
:101ED000422006E0022280F8402002E0022280F840
:101EE0004320026801F01F000121136A01FA00F08B
:101EF00023EA00011162116A084343F6FF71C4F23C
:101F000001018A42106209DCB2F1804F22D042F610
:101F10000040C4F2010082420CD028E044F20040AC
:101F2000C4F20100824205D044F20000C4F2010074
:101F300082421CD1506C44F20001C4F2010140F411
:101F400000408A42506405D042F60040C4F20100CD
:101F500082420CD190680721C0F20101014006299C
:101F60004FF0000008D0B1F5803F08BF80BD106879
:101F700040F001001060002080BD0000006844F2C5
:101F80000001C4F20101884218BF7047B0B540F2A9
:101F9000D404C2F20004E0684FF68F7540F20001ED
:101FA000CFF6FE750128C2F2000104D120784A78EC
:101FB000B0EB420F2AD90120486004F11000FFF76E
:101FC00069FA002140F23010E160C2F200000068BE
:101FD000217082692A4042F040028261206941F208
:101FE00011124163016AC0F21102114202D0BDE830
:101FF000B0407047016A40F244421142F7D1016893
:1020000021F001010160BDE8B040704700224A6044
:1020100040F23011C2F200010968A2688B69C24027
:10202000D20703EA050205D042F060028A61E16945
:1020300004E000BF42F040028A61002122690130C1
:1020400051632070BDE8B040704700007047000049
:10205000FEE70000FEE70000FEE70000704700001A
:102060002DE9F0438DB041F26000C4F20200016836
:1020700040F2D40841F4003101600168C2F2000866
:1020800001F4003106910699016840F2301441F4E0
:10209000803101600168C2F2000401F480310691D0
:1020A000069950F8141C01AD41F0010140F8141CD0
:1020B00050F8140C022600F001000690069844F235
:1020C0000000C4F20100C8F8100000F58060206034
:1020D0004020019000274FF00E094FF09040294614
:1020E0000296CDE90376CDF81490FEF757F9042057
:1020F00001A9C1C14FF090402946CDE90469FEF71E
:102100004DF92046FFF704FE40F24A30C4E90307C8
:102110002046C4E90177C4E90577FFF72FFE0028C0
:1021200018BFFEF721F9602040F23015069006AC8A
:10213000D220C2F20005CDE9070728462146002239
:10214000CDE90977CDE90B77FFF708FC002818BF28
:10215000FEF70AF928460021271D0026FFF78AFE10
:10216000286808F11004416C41F4004141642046A4
:10217000FFF7BAFB46F61F70C8E907062046C8E914
:102180000566C8E90966FFF7A5F8002818BFFEF73D
:10219000EBF82046FFF7F2FD002818BFFEF7E4F841
:1021A000602006900020C7E90000C7E90200C7E9E7
:1021B000040006A920460022FFF7D0FB002818BF24
:1021C000FEF7D2F8182000210022FEF741FA18206D
:1021D000FEF72CFA20460021FFF74CFED8F810003D
:1021E00041F21112016AC0F21102114202D00DB087
:1021F000BDE8F083016A40F244421142F7D1016820
:1022000021F0010101600DB0BDE8F083B0B540F2EE
:1022100000048646C2F20004606830B9606820B9E4
:10222000606810B960680028F6D040F2D4004FF41E
:102230004053C2F200004FF0000C3F2988BF4FF41A
:102240000053C0F80CC001F03F0542EA8E1141EA8C
:10225000030221782A43828051B1042901F0030E40
:1022600008D200230024BEF1000F33D14DE000BF9F
:1022700000214AE001F0FC040023002122FA03F5CA
:10228000ED074FF0800508BF402545EA01215D1CA0
:1022900022FA05F5ED074FF0200508BF1025294467
:1022A0009D1C22FA05F5ED074FF0080508BF04252F
:1022B0002944DD1C22FA05F5ED074FF0020503F174
:1022C000040308BF0125A3422944D7D18C00BEF1E5
:1022D000000F1AD0DA40D1074FF0020108BF0121E8
:1022E0000223BEF1010F41EA04010ED0940758BF4A
:1022F0000123BEF1020F43EA810106D052074FF0DD
:10230000020258BF012242EA810150F8102F40F822
:10231000081C012140F8041CC2F824C0BDE8B040EC
:10232000FFF788B870470000FEF720B94EF68850D6
:10233000CEF20000016841F47001016070470000B6
:1023400040F27C10C2F20000FFF7D4B940F28800DE
:10235000C2F20000FFF7CEB9FEE70000A0B0FEF722
:1023600013F901A804302421FDF796FF4FF4007003
:10237000FEF7AAF920B1EFF3108072B6FEE700BFB6
:10238000102001216022019009920222CDE90D1056
:1023900007200024CDE90F0201A807910894CDE998
:1023A0000B211192FEF7FEFA20B1EFF3108072B606
:1023B000FEE700BF0F201290032512A80121CDE9EE
:1023C0001354CDE915440126FEF7CCF920B1EFF303
:1023D000108072B6FEE700BF002441F24C00059465
:1023E000CDE90344CDE90144C4F20200016840F2A2
:1023F000004841F0010101600168C4F6000801F0E5
:10240000010112911299016844F2000941F00201A0
:1024100001600068082100F0020012901298404606
:102420000122C4F201090827FEF794F84FF4004096
:102430000190022002A931C1059501AD4FF09040F5
:102440002946FDF7ABFF40462946CDE90176CDE9A7
:102450000344FDF7A3FF40F27806C2F2000609F537
:102460008061304640F8101F40F24A318022CDE9A9
:102470000944CDE90744C0E90144C0E90314C0E9B7
:102480000542FEF727FF28B1EFF3108072B600BFB8
:10249000FEE700BF06F110052846FFF76FFC28B1E4
:1024A000EFF3108072B600BFFEE700BF602012900D
:1024B000D2201390002412A928460022CDE914440A
:1024C000CDE916441894FFF749FA28B1EFF31080CC
:1024D00072B600BFFEE700BF4FF40050069001A99E
:1024E00028460594CDE90344CDE901440B94FEF759
:1024F0006FFE28B1EFF3108072B600BFFEE700BF99
:102500002846FFF7ADF9002401A82C211F94CDE93E
:102510001D441A94FDF7C0FE40F27C10C2F2000088
:102520001F214FF45E72C0E90091C0E90242C0E988
:1025300004448461FEF7CEFE20B1EFF3108072B642
:10254000FEE700BF4FF480501C9040F27C10C2F2B6
:1025500000001CA9FEF7BEFF20B1EFF3108072B699
:10256000FEE700BF40F27C10C2F20000FFF706FC5D
:1025700020B1EFF3108072B6FEE700BF40F27C108E
:102580000024C2F2000019A919941B94FEF76CFEF6
:1025900020B1EFF3108072B6FEE700BF6020CDE9F6
:1025A000120440F27C10C2F2000012A90022CDE910
:1025B0001444CDE916441894FFF7D0F920B1EFF395
:1025C000108072B6FEE700BF4FF40050069040F254
:1025D0007C100025C2F2000001A90595CDE9035544
:1025E000CDE901550B95FEF7F3FD18B1EFF310801F
:1025F00072B6FEE740F27C10C2F20000FFF730F93D
:10260000FFF72EFD404608210022FDF7A3FF4FF4FF
:10261000FA70FDF7AFFE4046082101224FF0010994
:10262000FDF798FF40F21407C2F20007FDF798FF8C
:10263000B17801291ED00029F8D1F168411AB1F50D
:102640007A7FF3D30446404608210022FDF782FF3B
:1026500030783978B288FFF7D9FDB1882046B1FAD1
:1026600081F14909C902B180F46086F802902146DF
:1026700001E000BFF168401A2328D7D34046082163
:102680000122FDF767FFB570D0E7F1EE100A4FF6B3
:10269000FF71C0F2C03120EA010040F04070E1EE6D
:1026A000100A70470000000000000000010203044F
:1026B00006070809A0860100400D0300801A0600E5
:1026C00000350C0040420F0080841E0000093D00D0
:1026D00000127A000024F40000366E010048E80180
:1026E000006CDC0208270008000000201800000031
:1026F000F00100082027000818000020B80700009B
:1027000010020008000000000E4000000100000060
:10271000010000001000000000093D000C00000056
:040000050800018D61
:00000001FF
