:020000040800F2
:100000009808002079020008C5370008BD370008AD
:10001000C13700087D1200083142000800000000CE
:10002000000000000000000000000000153900087A
:100030008112000800000000C937000819390008C3
:10004000930200089302000893020008930200083C
:10005000930200089302000893020008930200082C
:10006000930200089302000893020008930200081C
:10007000930200089302000893020008930200080C
:1000800093020008930200089302000893020008FC
:1000900093020008930200089302000893020008EC
:1000A00093020008930200089302000893020008DC
:1000B0003139000800000000000000009302000831
:1000C00093020008000000000000000093020008F6
:1000D0000000000093020008254200080000000014
:1000E00093020008930200080000000000000000D6
:1000F0000000000000000000000000000000000000
:100100000000000000000000000000009302000852
:1001100000000000000000009302000893020008A5
:10012000930200089302000893020008930200085B
:100130009302000800000000000000000000000022
:10014000930200089302000893020008930200083B
:10015000930200089302000893020008930200082B
:1001600093020008930200089302000800000000B8
:100170009302000893020008000000000000000045
:1001800093020008930200089302000800F002F8AE
:1001900000F062F814A696E8000CB244B344DA45C5
:1001A00001D100F059F8BAE80F000FA696E8300028
:1001B000A5EB040504EB0607AAEB0704A7F101076A
:1001C0004FEA15154FEA3414A4F10104AC4201D3EF
:1001D00000F042F813F0010F18BFFB1A43F00103BF
:1001E00000F001F8DBE71847CC430000EC430000C7
:1001F000103A24BF78C878C1FAD8520724BF30C853
:1002000030C144BF04680C607047000070470000B4
:100210000023002400250026103A28BF78C1FBD80F
:10022000520728BF30C148BF0B607047642900F0F7
:10023000EF80782900F02881002070471FB504F076
:1002400044F99DE8030000F0D1FD00F0E1FA1FBD84
:1002500010B500F046FB10BD00F086FD1146FFF71B
:10026000EDFF03F0E7FF00F022FF03B4FFF7F0FF1C
:1002700003BC00F045FF00000948804709480047DB
:10028000FEE7FEE7FEE7FEE7FEE7FEE7FEE7FEE746
:10029000FEE7FEE704480549054A064B70470000A3
:1002A0001D3900088D0100089802002098080020E0
:1002B000980400209804002053EA020C00F06980A2
:1002C0002DE9F04B4FF00006002B1FBFB3FA83F56A
:1002D00003FA05F424FA05F65E4012BF1643B2FA9B
:1002E00082F502FA05F4C5F120051EBF22FA05FCCD
:1002F00044EA0C04203556EA044C4FEA144418BF73
:10030000641C4FF000084FF00009904271EB030CA1
:1003100039D3002919BFB1FA81F701FA07F6B0FA0B
:1003200080F700FA07F6C7F120071EBF20FA07FC86
:1003300046EA0C062037B6FBF4FCA7EB0507103F96
:1003400007F01F0BCBF120062CFA06F60CFA0BFB7C
:1003500044BFB3460026202FA4BF5E464FF0000BDB
:100360005BEA060C08BF4FF0010B19EB0B0948EBD9
:100370000608ABFB027C06FB02CC0BFB03CCC01BCC
:1003800071EB0C01C1E70B46024641464846BDE809
:10039000F08B13B5084318BF4FF0FF300146AFF3A1
:1003A0000080BDE81C4070470FB4044910B503AA93
:1003B000029800F01BFA10BC5DF814FB6C000020E2
:1003C00070B5044685690068C10601D5302600E095
:1003D0002026C00707D070BDD4E9012130469047E0
:1003E000206A401C20626D1EF6D570BD70B50446B3
:1003F00085690078C00707D170BDD4E901212020AC
:100400009047206A401C20626D1EF6D570BD00002A
:100410002DE9F0410646002410687529314616A5DD
:1004200010D0AFF30080002802DA404213A507E0A5
:1004300031688A0701D512A502E0490704D511A544
:10044000012401E0AFF3008000210A2206F1240715
:1004500009E0B0FBF2FCB0FBF2F302FB1C00303011
:1004600078541846491C0028F3D123462A463046C2
:10047000BDE8F04100F061B9000000002D0000006F
:100480002B0000002000000070B504460D462146F8
:100490001068AFF300802188090502D50F4A7A441D
:1004A00002E00E4A7A440E32002104F1240305E0F2
:1004B00000F00F060009965D5E54491C0028F7D134
:1004C00020780023000704D5702D02D009B1022343
:1004D00011322046BDE8704000F02FB942400000C4
:1004E0002DE9F05F894604464FF0000ADFF824B199
:1004F000FB44C0F820A02046E168884700287DD052
:10050000252806D0D4E901219047206A401C2062AA
:10051000F1E700255F462046E16888472028064627
:1005200007DB312E05D2B81910F8200C08B10543AD
:10053000F1E7A80701D525F00405C4F81CA00027A1
:10054000C4F818A02A2E09D0304603F0A9FF38B30A
:1005500004EB8708303EC8F8186019E059F8041B0E
:10056000204604EB87029161E1688847012F064627
:1005700018D1E069002820DA25F020051DE0D8F820
:10058000180000EB800006EB40003038C8F8180077
:100590002046E1688847064603F082FF0028EED136
:1005A000012F0AD02E2E08D12046E16888477F1CF3
:1005B0000646022F45F02005C4DBA069002803DAB7
:1005C000404245F00105A061E80701D025F0100583
:1005D000A6B1A6F14100192802D8203645F40065DD
:1005E0004A463146204625604D46FFF71FFE60B162
:1005F000012807D0ED1D25F0070000E007E000F11D
:10060000080978E705F1040975E730467AE7206ABA
:1006100000F002B81840000030BCBDE8C09F0000E8
:1006200010B5044603E003F042FF401C09D014F863
:10063000010B05490028F6D1BDE810400A2003F05F
:1006400036BF4FF0FF3010BD6C00002070B5C4689D
:10065000A50713D0650211D4B2F5807F09D0B2F599
:10066000007F06D0B2F5806F08D1012300F124018C
:1006700006E05D1E6FF07F46B54201D3012070BDDC
:100680000161C361416024F470611143C1600020C5
:1006900070BD02F0FF0343EA032242EA024200F087
:1006A00002B84FF000020429C0F0128010F0030CD1
:1006B00000F01B80CCF1040CBCF1020F18BF00F855
:1006C000012BA8BF20F8022BA1EB0C0100F00DB804
:1006D0005FEAC17C24BF00F8012B00F8012B48BF62
:1006E00000F8012B70474FF0000200B51346944606
:1006F0009646203922BFA0E80C50A0E80C50B1F17A
:100700002001BFF4F7AF090728BFA0E80C5048BF8D
:100710000CC05DF804EB890028BF40F8042B08BF2B
:10072000704748BF20F8022B11F0804F18BF00F827
:10073000012B70477047704770472DE9F0470D4611
:1007400099469246044600F124080168880604D5BB
:10075000E06921F01001216000E00120A84201DDE4
:10076000471B00E00027A1697A1902EB0900081A6B
:10077000A0612078C00602D42046FFF721FE0026A3
:1007800008E0D4E901211AF806009047206A401CCD
:10079000761C20624E45F4DB2078C0060AD5204640
:1007A000FFF70EFE06E0D4E9012130209047206AD1
:1007B000401C2062381EA7F10107F4DC07E0D4E9F1
:1007C000012118F805009047206A401C2062281E6D
:1007D000A5F10105F3DC2046FFF708FE20780006AE
:1007E00002D50220BDE8F0870120FBE7074B70B57A
:1007F0000D467B4400F0D5F80446284600F0E4F8A6
:1008000010B14FF0FF3070BD204670BDB93C000004
:1008100010B542485421FFF766FF41485421FFF7C5
:1008200062FF40485421FFF75EFF3F493B483C4A86
:100830003F4B08603D490A603A491960531C036503
:10084000481C1065012008653B48344A39A17844AA
:1008500000F0B2F920B9384878440A3800F04AFA72
:1008600037482F4A35A1784400F0A6F920B934481A
:1008700078440A3800F03EFA32482A4A2FA17844D8
:1008800000F09AF920B92F4878440A3800F032FA7B
:1008900040232248DC0000212246FFF7D7FE20B18A
:1008A00025487844543800F025FA1D482246402354
:1008B0000021FFF7CBFE20B121487844543800F0E6
:1008C00019FA1848224610230021FFF7BFFE00281E
:1008D00006D01C487844BDE81040563800F00ABAEB
:1008E00010BD104870B5006D20F001040B4800F0F9
:1008F000DBF90B4800F0D8F90A4800F0D5F909E017
:10090000206D20F00105204600F0CEF9204600F0D1
:100910001BF82C46002CF3D170BD000018000020FD
:100920006C000020C0000020000000200400002017
:100930000800002072000000CB3C0000770000009F
:10094000B73C0000A33C000070B50446051F00F052
:1009500031FA0068002C14BF446870BD002C18BF29
:10096000AC423CBF20466468F8D301680A18AA422A
:1009700018BF456003D12A68054611440160286804
:100980004119A1421CBF6C6070BD6168696021683B
:100990000844286070BD000001694A1C02610878A3
:1009A000704700B58FB0CDE90131002105910549AF
:1009B0007944CDE9031011466846FFF791FD0FB069
:1009C00000BD0000E5FFFFFF007B00F080007047E6
:1009D0002DE9F05F054617460C46C86820F4201044
:1009E00040F48000C860800602D5084600F03BFB5A
:1009F000E06841F282014FF0FF3A0140022903D042
:100A0000204600F0CDFAB9E000F42041B1F5004FE6
:100A10000FD1C00306D56168E06A884200D8084655
:100A2000606006E02069E0626060606900F096F94D
:100A3000A061A0680022EEB200280DDAE1688B0503
:100A40000AD4C043A06041F490302260E060606846
:100A5000411C61600670AAE0E0689146226040F4A3
:100A60000050E060206978BB606900F069F904F12A
:100A700024054FF00108A8B1A08910F4407F08D0E8
:100A8000E06900F0E2F9206118B1E06840F400602C
:100A900017E0C4F81C802561E06820F4407040F441
:100AA00080600EE0E06900F0D0F900282061F0D00D
:100AB000E06840F4006010F4407FE06002D140F450
:100AC0008070E06020696060E06825696FF0010B6C
:100AD000C1051ED56168E06A884200D80846411BFE
:100AE00004D02246284600F065FAE8BB1FB1E56253
:100AF000C4E9015959E0681CE0626060E069401E89
:100B0000A060E06840F48030E06030462E7000F075
:100B100050B817B100F480320AE06068411C61608F
:100B20000670E0680A2E40F48030E06006D00022B3
:100B3000E16A6068814203D90B4602E00122F7E7CF
:100B40000346B4F80CC05B1B5FEA4C5C04D4D4F8D9
:100B50001CC09C4500DD02B3814200D80146002B39
:100B6000A1EB0008E56200E008E0C4E9015907DDF7
:100B700022461946284600F01DFA08B15046C6E73D
:100B8000B8F1000F09D0A169E5626560A1EB08002A
:100B9000A061E06840F01000E06047B16168A069C2
:100BA000E562491B08446560A0615846AFE73046DE
:100BB000ADE730BCBDE8C09F2DE9F0410C461646BC
:100BC000070047D0104600F06FF82078611C6128BC
:100BD0000AD0722802D077283CD102E001250024F7
:100BE00005E00225042402E0082448F2020511F879
:100BF000010B2B2806D0622809D011F8010C7428AB
:100C00000AD00BE045F0030544F00204EFE745F09D
:100C1000040544F00104EAE744F010043846214694
:100C200000F06FF8411C15D00021316171604FF464
:100C30000071F560F1617061200704D53046022231
:100C4000002100F031F9306D40F001003065304690
:100C5000BDE8F0810020FBE72DE9F0410D46064696
:100C6000104C206DC10704D0410804D020F00104CD
:100C7000F7E722460EE0542000F0E7F807000ED018
:100C8000206D47F001010843542120653846FFF7E5
:100C90002AFD3A4629463046BDE8F0418CE700205F
:100CA000D6E70000180000202DE9F04704464FF079
:100CB000FF380026C568D4E90497A80718D0204655
:100CC00000F0AEF9384600F026F8002800DA464673
:100CD000280502D54846FFF737FE4C212046FFF78E
:100CE00002FD206D20F0010020653046BDE8F08750
:100CF0004046FBE710B500F0E9F9BDE8104000F010
:100D0000DFB90EB5CDE9000100F066FA0290694640
:100D10000120ABBE0EBD08B5694600900220ABBEF7
:100D200008BD1FB58DE8070069460520ABBE04B0BD
:100D300010BD1FB58DE80F0069460620ABBEF6E773
:100D400008B5694600900920ABBE08BD1CB5CDE9C9
:100D5000000169460A20ABBE1CBD704708B5694654
:100D600000900C20ABBE08BD754600F0CFF9AE4632
:100D700005006946534620F00700854618B020B5A7
:100D8000FFF788FABDE820404FF000064FF000075B
:100D90004FF000084FF0000BAC46ACE8C009ACE8DF
:100DA000C009ACE8C009ACE8C00921F007018D46D4
:100DB00070470000004870471C01002070477047D2
:100DC0007047704738B504460A4600206946AFF3BD
:100DD0000080002808BF38BD02460099204600F078
:100DE000A0F9012038BD012000F0EFB9F8B5AFF34C
:100DF0000080054600200C460C2000BF0646A819BE
:100E0000A0420DD9324669460020AFF300800700AA
:100E100008BF00F0DAF90098A04218BF0546C419CF
:100E2000FFF7C8FF05600746F01D20F007004619D0
:100E3000284600F070F9B44208BFF8BDA21B314645
:100E40003868BDE8F84000F06CB970B50646FFF7A9
:100E5000B1FF056806F10B0020F00704B4429CBF07
:100E6000002070BD2B466A68BAB11068A04210D34A
:100E700004F1080188423CBF5068586007D35168AC
:100E8000101941601168091B016058601460101D41
:100E900070BD13465268002AE7D121462846FFF765
:100EA00091FF0028DED170BD2DE9F04104461646C1
:100EB0000D464769007B80072ED03846FFF740FF7C
:100EC00050BB3EB3012E02D0022E25D104E02046B5
:100ED00000F041F905441DE03846FFF73FFFE168A7
:100EE000002841F01001E16005DA204600F058F8D2
:100EF0000120BDE8F081C9030BD56268E16A914227
:100F000000D81146A26911442269891A814200DD84
:100F100008460544002D01DA0220EAE7E16A60682C
:100F2000E268814206D29103E06203D522F40031E7
:100F300041F01002A6690027AE4213DCE16A81424B
:100F400001D90B4600E0034603EB060C2369ACEB2A
:100F5000030CAC4506DD814201D98C4600E0844695
:100F60009C4505D1A760276042F02000A5620DE0F6
:100F7000AD1BE669AE1B8142A66000D90846C01AC7
:100F8000281A20605819606022F0200003490840A8
:100F9000E060002084F84870ABE70000BFCFD7FFC7
:100FA000C16821F4001141F08001C160002181601D
:100FB000016070472DE9F74F15460C464FF0FF3B97
:100FC0003848D768D2F814A0074209D05046A9691A
:100FD000FFF7BCFE002819DB3248C0430740EF6032
:100FE0004FF000496FF000484C4501D3464600E001
:100FF000264600993B4650463246FFF792FEA969C5
:1010000020F00042B21A1144A96128B12846FFF726
:10101000C7FF584600F048B8A41BE5D10020F9E707
:1010200070B504460569C06A6168884200D8084600
:10103000E16821F42011E160C90312D5A84208D06B
:101040002246411B2846FFF7B5FF10B14FF0FF3095
:1010500070BD0020E562C4E90150E06820F48030F2
:10106000E060002070BD10B50446C06820F020008C
:10107000E060A16AA06988420DD02046FFF7D0FF4A
:10108000E06820F4405040F01000E060A06AA061E9
:101090002069E062606044F24001E0688843E060FB
:1010A00010BD0000100002001EBCBDE8E08F10B5AE
:1010B0000446AFF300802046BDE81040FFF7D5B8E6
:1010C000002801D000F01CB87047000010B50146A0
:1010D00002A000F061F8012010BD00005349475202
:1010E000545245443A2052656469726563743A20EB
:1010F00063616E2774206F70656E3A2000000000F7
:1011000001491820ABBEFEE72600020000487047E8
:1011100014010020704700210160416070470C20DD
:101120007047034640688C46002818BF88423CBF81
:1011300003464068F8D318681844884207D00CF179
:10114000030020F00700001D411A521A0146081D35
:101150000A60FFF7F9BB10B50146C268900703D0DB
:10116000900607D5886A0AE000F05CF8012101606A
:10117000881E10BD8B69486818440B69C01A91F825
:1011800048301BB191F84910401A10BD1103FCD52D
:101190000028FADD401E10BD70B505460C460A2039
:1011A00000E06D1C00F037F835B128780028F8D140
:1011B00002E0641C00F02FF814B120780028F8D168
:1011C000BDE870400A2000F026B810B500F02EF8F7
:1011D000BDE81040FFF774BF10B5431C02E010F8E3
:1011E000011B71B18107FAD14FF0013202C88C1A8C
:1011F0008C4314EAC211F9D0C01A0A0603D0C01EEB
:1012000010BDC01A10BD0A0401D0801E10BD090215
:10121000FCD0401E10BD08B569468DF800000320C3
:10122000ABBE08BD004870471401002010B501286E
:1012300005D0002103A0FFF7AFFF012010BD09A1D9
:10124000F8E7000053494752544D454D3A204F7539
:1012500074206F662068656170206D656D6F7279AE
:10126000000000003A2048656170206D656D6F7266
:101270007920636F7272757074656400FEE7000018
:1012800070470000EFF3108072B600BFFEE7000069
:10129000002804BF0120704790F82510022919D1B9
:1012A0000168D0E910C30A6822F001020A600A68E6
:1012B00022F00E020A6003F01C01012202FA01F181
:1012C000CCF80410002180F82520002280F824208A
:1012D000084670470421C1630121002280F82420C0
:1012E0000846704790F82510022921D180B5026880
:1012F000D0F838C0D0E910E1136801F01C0123F0E8
:10130000010313601368BCF1000F23F00E03136098
:101310004FF0010202FA01F1CEF804104FF0000183
:1013200080F8252080F8241018BFE047002080BDF9
:101330000421C163012070472DE9F04F83B00C6890
:10134000002C00F0CF8000F1200240F2004E00920D
:1013500040F60002C4F2010EC4F600020723002585
:1013600000274FF00008904208BF022301934DE090
:1013700040F20042C4F60002DDF80490904208BF3B
:101380004FF0010905F00C060F22B2402CEA0202D0
:1013900009FA06F64FEA9803324344F82320DEF8B0
:1013A00008204B6842EA0A0640F20C4CDC0258BFA7
:1013B00022EA0A06CEF80860C4F2010CDCF800202C
:1013C0009C0242EA0A0658BF22EA0A06CCF80060EC
:1013D000DEF804209C0342EA0A0658BF22EA0A0605
:1013E000CEF80460DEF80020DB0342EA0A0658BFAC
:1013F00022EA0A06CEF800600C6808F1010834FA07
:1014000008F207F1020705F104056BD0012202FA88
:1014100008FC14EA0C0AEFD0D1F804B003230BF057
:101420000304621E03FA07F6012A6FEA060911D8BF
:101430008268CE6802EA0902BE4032438260426896
:10144000CBF3001622EA0C0206FA08F63243426099
:1014500004E000BF032C01D103241EE0C2688E68A3
:1014600002EA0902BE403243022CC26015D16FF07D
:10147000030202EA580B009A05F01C0452F80BC054
:101480000F230E69A3402CEA0303A640334342F81E
:101490000B30D1F804B00BF00304026804FA07F330
:1014A00002EA09021A431BF4403F0260A4D041F251
:1014B0006003C4F202031A68AEF57E7442F00102C2
:1014C0001A601A68B0F1904F02F001020292029A7B
:1014D00028F0030254F802C07FF44AAF4FF000092D
:1014E00050E700BF03B000F000B830BCBDE8C08FCB
:1014F00040F29420C2F200000068704740F20C00F5
:1015000040F29421C2F20000C2F2000100780A68A1
:10151000104408607047000080B5032000F08CF88C
:101520000F2000F009F800281CBF012080BD00F04A
:101530002BF8002080BD0000B0B540F20C05C2F2CF
:1015400000052978F1B1044640F21400C2F200000F
:101550004FF47A720068B2FBF1F1B0FBF1F000F0E9
:10156000B5FF01460F2C4FF001000AD8002918BF23
:10157000B0BD4FF0FF302146002200F031F80020CE
:101580006C60B0BD0120B0BD82B041F25800C4F221
:101590000200816841F001018160816801F0010170
:1015A00001910199016841F080510160006800F0EB
:1015B00080500090009802B070470000002848BF9B
:1015C000704700F01F01012202FA01F11C2202EA19
:1015D000D0004EF20012CEF200028150704700009F
:1015E00010B54EF60C5CCEF2000CDCF80030C3F304
:1015F000022E8EF00704042C28BF0424BEF103033E
:101600004FF0FF3E0EFA04F438BF0023A143994087
:101610000EFA03F39A43114300F00F0200F1604306
:101620000901043A03F564436244002848BF02F10B
:101630000C03197010BD00004EF60C51CEF20001E3
:101640000A684FF6FF031A4060F30A2242F08060F6
:1016500040F0FD700860704747F20001C4F20001DD
:101660000A68B0F5007F02F4C06031D1B0F5007FA8
:101670002CD00868012262F34A20086040F214006E
:10168000C2F200000068322250434DF68362C4F279
:101690001B32A0FB0202900C4A69520511D5421C74
:1016A0000FD04A6952050CD558B14A69520508D580
:1016B000012806D04A69520503D50228A0F104008A
:1016C000EAD14869400544BF0320704700207047B5
:1016D000B0F5806FFAD00868022262F34A200860F1
:1016E0000020704747F20000C4F20000006800F4D8
:1016F000C06070472DE9F04381B00446407841F264
:1017000088070007C4F202071ED5E06B80B1B0F570
:10171000400F14D0B0F5000F40F0148157F87C0C46
:1017200040F4803047F87C0C4FF4000007E000BF25
:10173000201D002102F04AF8814638B9E06B396873
:1017400021F44001084338604FF00009A078800779
:1017500052D557F8300C5FEAC0080BD457F8300C5C
:1017600040F0805047F8300C57F8300C00F08050B3
:101770000090009847F20005C4F20005286840F484
:1017800080702860FFF7B4FE064600BF2868C005D9
:1017900008D4FFF7ADFE801B0228F7D94FF00309EC
:1017A00021E000BFB9F1000F1DD1B86810F44070FE
:1017B00011D0216D88420BD0B868B96820F4407010
:1017C00041F48031B960B96821F48031B960B86002
:1017D000C00740F0BF80B868216D20F44070084316
:1017E0004FF00009B860B8F1000F05D457F8300C7D
:1017F00020F0805047F8300C2168C8070ED18807C8
:1018000014D488061AD4880520D4480526D448065E
:101810002CD4C80532D4880438D449E03868226A08
:1018200020F00300104338608807EAD53868626A00
:1018300020F00C00104338608806E4D53868A26AAE
:1018400020F44060104338608805DED53868626B4C
:1018500020F44020104338604805D8D53868A26B82
:1018600020F44010104338604806D2D53868E26A48
:1018700020F4405010433860C805CCD53868226B3E
:1018800020F4403010433860880411D53A68206C49
:1018900022F040620243B0F1806F3A601ED0B0F196
:1018A000006F05D157F87C0C40F4801047F87C0C91
:1018B000480327D53A68606C22F040620243B0F1D9
:1018C000806F3A6016D0B0F1006F1BD157F87C0CD6
:1018D00040F4801047F87C0C14E000BF201D01216B
:1018E00001F074FF2168002818BF81464803E1D445
:1018F00008E000BF201D012101F068FF21680028D9
:1019000018BF8146480410D53868A26C20F04050BA
:101910001043B2F1805F386007D1201D022101F031
:1019200055FF2168002818BF8146080405D538688E
:10193000E16C20F0804008433860484601B0BDE8C3
:10194000F08300BF4FF00109A07880073FF501AF99
:1019500052E700BFFFF7CCFD064641F288354FF055
:10196000030900BFB86880073FF535AFFFF7C0FD3A
:10197000801BA842F6D936E72DE9F04381B0002854
:1019800000F08C8042F20009C4F202090446D9F842
:10199000000000F0070088420CD2D9F8000020F0C7
:1019A00007000843C9F80000D9F8000000F007005C
:1019B000884273D1206841F2080610F00202C4F296
:1019C00002060AD0A368376807F0F007BB4204D9C3
:1019D000376827F0F0073B433360C30734D06068B3
:1019E00056F8082C50B1022804D003280AD19201DD
:1019F0000AD453E0920307D450E000BF920703D407
:101A00004CE000BF520549D58846316821F00301FA
:101A100008433060FFF76CFD054641F2883700BF90
:101A20003068616800F00C00B0EB810F08D0FFF760
:101A30005FFD401BB842F3D9032001B0BDE8F0833D
:101A40002068414600F0020252B1A268336803F0F8
:101A5000F0039A4204D2336823F0F0031A43326051
:101A6000D9F8002002F007028A420CD9D9F80020E8
:101A700022F007020A43C9F80020D9F8002002F03A
:101A800007028A420AD141070CD4000712D43068F9
:101A9000716810F00C0019D11EE000BF012001B0E8
:101AA000BDE8F0833168E26821F4E0611143316000
:101AB0000007ECD53068216920F4605040EAC1008D
:101AC00030603068716810F00C0005D00C282BD104
:101AD00001F00301012927D156F8081C042211F056
:101AE00008016FF0070108BF8C21715808BF082258
:101AF000D14044F2445201F00F01C0F6000252F806
:101B0000211000280A4618BF00220C2838D170681E
:101B100000F00300022811D0032804BF41F2002185
:101B2000C0F27A010EE000BF04281FD0082823D19C
:101B300041F20022C0F27A0222E000BF42F20041EC
:101B4000C0F2F40170687268C0F30210C2F306229A
:101B5000514372680130B1FBF0F0C2F341610222DF
:101B600002EB4101B0FBF1F20AE000BF42F2004299
:101B7000C0F2F40204E000BF002200210C28C6D00D
:101B8000306844F22951C0F30310C0F60001085C2C
:101B900000F01F0022FA00F140F21000C2F2000033
:101BA00040F214020068C2F20002116001B0BDE808
:101BB000F043FFF7C1BC000040F2140041F20801FD
:101BC000C2F20000C4F202010068096844F239520E
:101BD000C1F30221C0F60002515C01F01F01C840B0
:101BE0007047000040F2140041F20801C2F2000008
:101BF000C4F202010068096844F23952C1F3C221FB
:101C0000C0F60002515C01F01F01C840704700009F
:101C100041F20C01C4F2020151F8040C10F00C0264
:101C2000086805D00C2A2BD100F00300012827D129
:101C300051F80C0C042310F008006FF00B0008BFE3
:101C40008820085808BF0823D84044F2445300F0C5
:101C50000F00C0F6000353F82030002A184618BFC2
:101C600000200C2A18BF7047086800F00300022803
:101C700010D0032804BF41F20023C0F27A030DE024
:101C8000042A1FD0082A23D141F20020C0F27A0092
:101C9000704700BF42F20043C0F2F40308680A68CC
:101CA000C0F30210C2F30622096801305A43B2FBA6
:101CB000F0F0C1F34161022202EB4101B0FBF1F00F
:101CC000704700BF42F20040C0F2F400704700BF0E
:101CD00000200023C5E70000002804BF0120704752
:101CE0002DE9F04383B041F200060446C4F2020637
:101CF000B068F168227800F00C09D00601F0030802
:101D00001ED42078C00700F08880B9F1080F00F0D9
:101D10007D80B9F10C0F08BFB8F1030F76D0616870
:101D20003068B1F5803F07D0B1F5A02F40F0528266
:101D300040F480203060306840F48030306053E2FE
:101D4000B9F1000F1CD0B9F10C0F08BFB8F1010FA9
:101D500016D0A1693068002900F0A08140F0010090
:101D60003060FFF7C5FB05463068800700F1A881A9
:101D7000FFF7BEFB401B02284FF00300F4D960E3DD
:101D80003068800703D5A069002800F00F83256A1A
:101D90003068000700F14A81D6F89400000900F08D
:101DA000F000854200F248813068B9F1000F40F040
:101DB00008003060306820F0F00040EA0500306034
:101DC0007068E16920F47F4040EA0120706040F0D3
:101DD000B882B06DC00000F15582B06D40F0805007
:101DE000B065B06D00F0805002900298FFF77AFC69
:101DF000B16D21F08051B165B0F5007F00F04882EF
:101E0000802D40F2858203208DE200BF3068800380
:101E100003D56068002800F0C982207880072DD59E
:101E2000B9F1040F1CD0B9F10C0F08BFB8F1020FC3
:101E300016D0E1683068002900F0E68140F4807037
:101E40003060FFF755FB0546306840050FD4FFF7BB
:101E50004FFB401B02284FF00300F5D9F1E200BF11
:101E60003068400503D5E068002800F09F82706864
:101E7000216920F0F85040EA016070602078000786
:101E800060D42078400779D42078800600F1B280B1
:101E9000A06A002800F01683022840F02381F06831
:101EA000E16A00F003028A4240F03481226B6FF055
:101EB0000F0300F0700103EB0212914240F02A81FF
:101EC000616B00F4FE42B2EB012F40F02381A16B65
:101ED00000F07842B2EBC16F40F01C81E26B00234E
:101EE000CFF6E07303EA025200F4C001A2F500123B
:101EF000914240F00F81216C4FF07E4202EA016175
:101F000000F0C06001F17E41884240F003813068FA
:101F1000800100F1D782306840F080703060F06856
:101F200040F08070F060FFF7E3FA0446306880010B
:101F300000F1C882FFF7DCFA001B02284FF0030013
:101F4000F4D97EE26169D6F89400002900F090800F
:101F500040F00100C6F89400FFF7CAFA054600BF3A
:101F6000D6F8940080078CD4FFF7C2FA401B0228F1
:101F7000F6D9032003B0BDE8F08300BFB06D5FEA7F
:101F8000C00808D4B06D40F08050B065B06D00F06E
:101F900080500090009847F20007C4F200073868AC
:101FA000C00513D4386840F480703860FFF7A0FA99
:101FB000054600BF3868C00508D4FFF799FA401BF2
:101FC00002284FF00300F5D93BE200BFA168D6F824
:101FD0009000012908D0052940F0DC8040F0040081
:101FE000C6F89000D6F8900040F00100C6F89000C6
:101FF000DCE000BF616AD6F89800002900F0B480E8
:1020000040F00100C6F89800FFF772FA054600BFDD
:10201000D6F8980080073FF53BAFFFF769FA401B01
:1020200002284FF00300F3D90BE200BF306800F044
:10203000F00085427FF6B8AEB06DC00000F186803A
:10204000B06D40F08050B065B06D00F080500190F0
:102050000198FFF747FBB16D21F08051B165B0F5F4
:10206000007F79D0802D40F2E1800320E9E000BFBD
:1020700020F00100C6F89400FFF73AFA054600BFC9
:10208000D6F8940080077FF5FCAEFFF731FA401BCD
:1020900002284FF00300F3D9D3E100BF20F0010084
:1020A0003060FFF725FA0546306880077FF529AED6
:1020B000FFF71EFA401B02284FF00300F4D9C0E1DD
:1020C000306840F0080030603068D4E9071220F032
:1020D000F00010433060706820F47F4040EA012037
:1020E00070600EE6B9F10C0F00F06081306820F0EE
:1020F00080703060FFF7FCF9044600BF3068800153
:1021000040F1EA80FFF7F4F9001B02284FF00300CA
:10211000F4D996E1B9F10C0F00F048813068400124
:1021200000F14481306820F080703060FFF7E0F902
:10213000054600BF3068800140F18681FFF7D8F97D
:10214000401B02284FF00300F4D97AE1FFF7CAFAE6
:10215000B0F5007F7FF486AF812D71D30120A02DD3
:1021600088BF02206DE000BF20F00100C6F8980093
:10217000FFF7BEF9054600BFD6F8980080077FF547
:1021800087AEFFF7B5F9401B02284FF00300F3D9E3
:1021900057E100BF20F00100C6F89000D6F890008B
:1021A000002920F00400C6F8900079D0FFF7A0F9CC
:1021B000054641F2883700BFD6F89000800700F14D
:1021C0008180FFF795F9401BB842F5D9032003B091
:1021D000BDE8F08320F4803030603068002920F4BE
:1021E0008020306000F08480FFF782F9054600BF50
:1021F000306880033FF511AEFFF77AF9401B642881
:102200004FF00300F4D91CE120F480703060FFF738
:102210006FF90546306840057FF530AEFFF768F985
:10222000401B02284FF00300F4D90AE1A5F1700029
:10223000B0FA80F04009802D08BF022001E000BF05
:10224000002042F20001C4F202010A6822F00702F3
:1022500002440A60096801F00701814240F0A6804B
:10226000306840F0080030603068D4E9071220F090
:10227000F00010433060706820F47F4040EA012095
:1022800070605EE0FFF72EFAB0F5007F7FF4B8AD26
:10229000812D47D30120A02D88BF022043E000BF3D
:1022A000FFF726F9054641F2883700BFD6F89000BF
:1022B000800707D5FFF71CF9401BB8424FF0030019
:1022C000F4D9BEE0B8F1000F3FF5DEADB06D20F0FF
:1022D0008050B065D8E500BFF0684FF6FC71CFF6CE
:1022E000EE610840F060002003B0BDE8F08300BF5D
:1022F000FFF7FEF8054600BF306880037FF58DAD1F
:10230000FFF7F6F8401B64284FF00300F4D998E07B
:10231000A5F17000B0FA80F04009802D08BF0220BE
:1023200001E000BF002042F20001C4F202010A688D
:1023300022F0070202440A60096801F007018142A5
:1023400034D1B068F16810F00C0005D00C2831D100
:1023500001F0030101292DD1314651F8942B12F0DF
:102360000802324608BF0A464FF00401126808BF4F
:10237000082122FA01F144F2445201F00F01C0F6A3
:10238000000252F8211000280A4618BF00220C282B
:102390003CD1F06800F00300022815D0032804BFE8
:1023A00041F20021C0F27A0112E000BF012003B027
:1023B000BDE8F08304281FD0082823D141F2002271
:1023C000C0F27A0222E000BF42F20041C0F2F40102
:1023D000F068F268C0F30210C2F306225143F268BB
:1023E0000130B1FBF0F0C2F34161022202EB410186
:1023F000B0FBF1F20AE000BF42F20042C0F2F40288
:1024000004E000BF002200210C28C2D0B06844F2D2
:102410002951C0F30310C0F60001085C00F01F0052
:1024200022FA00F140F21000C2F2000040F2140261
:102430000068C2F200021160FFF77EF800283FF446
:1024400060AC03B0BDE8F083F06848F28C01C0F2E4
:102450009D1104F12C0700EA010C8ECF6FF00F00E4
:10246000D4E90F5400EB02100022CFF6E07241EAEB
:102470000C0102EA05520843A2F500124FF07E4516
:1024800040EA032005EA0465104305F17E4540EA71
:10249000C7602843F060306840F080703060F068BA
:1024A00040F08070F060FFF723F804463068800148
:1024B00008D4FFF71DF8001B02284FF00300F5D9E0
:1024C000BFE700BF002003B0BDE8F083411E00203D
:1024D000B0EB116F1CBF012070474EF21002CEF21C
:1024E000000251604EF62351CEF20001F0230B7032
:1024F000072190601160704770470000704700002E
:102500007047000090F83C20012A4FF002022DD0C5
:1025100010B580F83D20026842F6004C5368D2F8AE
:1025200008E0C4F2010C624503D14C6823F4700347
:1025300023430C6823F070032343B2F1804F5360B0
:1025400007D044F20003C4F201039A4201D062456D
:1025500004D189682EF08003194391600121002283
:1025600080F83D1080F83C20BDE8104010467047D0
:1025700090F83D10012929D1022180F83D10016811
:10258000C868B1F1804F40F00100C8600BD044F240
:102590000000C4F20100814205D042F60040C4F2BE
:1025A000010081420CD188680722C0F2010202407A
:1025B000062A4FF000000AD0B2F5803F08BF7047EE
:1025C000086840F001000860002070470120704753
:1025D0000168B1F1804F01D0704700BF017F012930
:1025E00018BF70472DE9F04F81B000210546002744
:1025F00000F024FD04462846042100F01FFD40F2AF
:10260000741A8442C2F2000A2FD970B39AF80110EA
:1026100031B940F20111AAF8011001218AF80C1019
:10262000221AA0F52073A0F23C50B0F55C7F4FF069
:10263000000098BF01204100B3F5FA7FA2F5207099
:10264000A2F23C5298BF0121B2F55C7F4FF000032B
:1026500098BF01235E00B0F5FA7F98BF01260029DC
:102660004FF0000718BF002E08D18AF801708AF8D1
:10267000027001B000F0D9B9704700BF9AF802703B
:102680003F2F4AD8B2F55C7F4FF0000BA1F101015A
:1026900087F03F054FF0000988BF4FF0010BB0F500
:1026A000FA7FCCB2294688BF4FF00109AC4238BF4F
:1026B00021460AEB070001310C30C9B2FDF7F1FFEA
:1026C000A54238BF2C4607EB040808F1010719EAB8
:1026D0000B0F8AF802701DD15FFA88F03E2819D8D6
:1026E000711EC8F13E02D2B2CDB25AFA87F09542BD
:1026F00038BF2A460C30511C0122FCB2FDF7C9FF3D
:10270000C4F13F00A84238BF054608EB0500871C0E
:102710008AF80270F8B21C28ABD36FF01B0050FA95
:1027200087FE9AF80C4070465FFA87FCBEF1020FF4
:1027300028BF0220421C002309E000BF002908BF77
:10274000012C29D001339A423C4600F0F5800AEB77
:102750000300477B012C08BF002F05D0002C08BFC9
:10276000012FEFD1002600E00226817BC47B0129E6
:1027700008BF002C04D0002908BF012CE2D101E0E1
:1027800046F00106017C447C012908BF002CD5D10C
:1027900071004E1C01E000BF7600817CC47C0129E1
:1027A00008BF002C06D0002908BF012CCAD1760032
:1027B00002E000BF71004E1C017D447D012908BF6D
:1027C000002C05D0002908BF012CBBD1760001E008
:1027D00071004E1C817DC47D012908BF002C05D0ED
:1027E000002908BF012CADD1760001E071004E1C1C
:1027F000017E447E012908BF002C05D0002908BFB6
:10280000012C9FD1760001E071004E1C817EC47EB8
:10281000012908BF002C07D0002908BF012C7FF434
:1028200091AF760002E000BF71004E1C017F447F33
:10283000012908BF002C07D0002908BF012C7FF414
:1028400081AF760002E000BF71004E1C817FC47F23
:10285000012908BF002C07D0002908BF012C7FF4F4
:1028600071AF760002E000BF71004E1C90F820109E
:1028700090F82140012908BF002C07D0002908BF8B
:10288000012C7FF45FAF760002E000BF71004E1CA8
:1028900090F8221090F82340012908BF002C07D09F
:1028A000002908BF012C7FF44DAF760002E000BF85
:1028B00071004E1C90F8241090F82540012908BFA3
:1028C000002C07D0002908BF012C7FF43BAF760015
:1028D00002E000BF71004E1C90F8261090F827000F
:1028E000012908BF002807D0002908BF01287FF46C
:1028F00029AF700002E000BF7000013000F44051C9
:10290000B1F5405F7FF41EAF40F2011200F03F01CD
:10291000AAF80400AAF80620C0F3C022C0F384106D
:102920008AF80900012000278AF808208AF80A108E
:102930008AF8000099E600BFBCF1290FFFF499AEB8
:102940000AF10C0010F80E1060448AF80C1010F810
:102950001B1C1C278AF80D1010F81A1C8AF80E1080
:1029600010F8191C8AF80F1010F8181C8AF81010AB
:1029700010F8171C8AF8111010F8161C8AF812109B
:1029800010F8151C8AF8131010F8141C8AF814108B
:1029900010F8131C8AF8151010F8121C8AF816107B
:1029A00010F8111C8AF8171010F8101C8AF818106B
:1029B00010F80F1C8AF8191010F80E1C8AF81A105B
:1029C00010F80D1C8AF81B1010F80C1C8AF81C104B
:1029D00010F80B1C8AF81D1010F80A1C8AF81E103B
:1029E00010F8091C8AF81F1010F8081C8AF820102B
:1029F00010F8071C8AF8211010F8061C8AF822101B
:102A000010F8051C8AF8231010F8041C8AF824100A
:102A100010F8031C8AF8251010F8021C8AF82610FA
:102A200010F8010C8AF8270021E630BCBDE8C04F41
:102A3000FFF722BE90F83C30012B04BF0220704704
:102A40004FEAB202032A00F2C9802DE9F041DFE823
:102A500002F0038D3F6700BF0368D1E900C5D1F8DC
:102A60000CE01C6A1A6A42F60048C4F2010844F2FB
:102A7000000722F001024345C4F201071A6207D0A1
:102A800044F20042C4F20102934201D0BB4203D19E
:102A90001A6A22F004021A621A4652F8186FB3F149
:102AA000804F18BFBB4240F09F8026F0030635439D
:102AB00024F00A070CF00A066EF3071537449D61EF
:102AC0001F629F6927F00C079F6189687AE000BF49
:102AD0000268D1E900C7CD68166A146A42F600435D
:102AE000C4F201039A4224F48073136203D1136A7F
:102AF00023F48063136252F81C3F65F3071723F039
:102B0000F3033B4326F420670CF00A0647EA062746
:102B100013605760136823F00C031360896851E059
:102B20000368D1E900E6D1E902C11C6A1A6A3602DB
:102B300022F480521A621A4652F81C5F4FF2FF07C5
:102B4000BE4325F4734561F30F3624F420440EF0A0
:102B50000A0746EA050144EA073711601F62116857
:102B600021F4406111604FEA0C212BE00268D1E9A9
:102B700000C7CD68166A146A42F60043C4F2010326
:102B80009A4224F01003136203D1136A23F0400326
:102B9000136252F8183F3F024FF2FF04A74323F499
:102BA000734365F30F373B4326F0A0070CF00A068A
:102BB00047EA061713609760136823F440631360B5
:102BC000896809021368194311600021BDE8F041CA
:102BD000002280F83C200846704700BF01210022F7
:102BE00080F83C200846704743453FF45EAF46F00E
:102BF00001055DE7002804BF01207047B0B590F8DB
:102C00003D1031B9002180F83C10044600F068F80E
:102C10002046022180F83D10016842F6004E0A6805
:102C2000C4F2010E714502D0B1F1804F03D1846826
:102C300022F07002224343F6FF74C4F2010444F20E
:102C4000004CA142C4F2010C06DCB1F1804F0BD064
:102C5000714509D00CE000BF614505D044F2000485
:102C6000C4F20104A14203D1046922F44072224358
:102C70004368C56884697145CD628B6218BF614540
:102C800026D143690B630B6822F0800243F00403F2
:102C900022430B6001234B610A6080F8483080F8C2
:102CA0003E3080F83F3080F8403080F8413080F886
:102CB000423080F8433080F8443080F8453080F866
:102CC000463080F8473080F83D300020B0BD00BF6E
:102CD00044F20003C4F201039942D2D0D3E70000CA
:102CE00080B586B000680021B0F1804F0591CDE934
:102CF00003110291019101D006B080BD41F24C0058
:102D0000C4F20200C26842F00102C260C26802F06E
:102D100001020092009A026842F00102026000681B
:102D2000022200F001000090009801200190CDE9FE
:102D30000221CDE9041001A94FF09040FEF7FCFA02
:102D40001C2000210022FEF74BFC1C20FEF736FC65
:102D500006B080BD80B5E9B10A1F4FEAB20E432329
:102D60004FF03F0CBEF1040F38BF0CEBB203C25C56
:102D70004723082908BF4623042908BF4523012A01
:102D80004FF0010210F803C008BFBCF1010F17D0CB
:102D9000104680BD90F83E2090F84430012A4FF054
:102DA000010208BF012BF3D1022280F83E2080F8F7
:102DB00044204FEAB103032B4FF00102E8D838E07A
:102DC000BEF1030F28D8DFE80EF00315090F00BF8E
:102DD000022280F83F20082911D122E0022280F847
:102DE000412008290BD11CE0022280F8422008294A
:102DF00005D116E0022280F84020082911D00429CC
:102E000014BF80F8472080F845204FEAB103032B18
:102E10004FF00102BCD80CE0022280F843200829C0
:102E2000EDD180F846204FEAB103032B4FF00102A9
:102E3000AED844F2745C0068C0F6000C5CF823C0A5
:102E4000C36801F01F0143EA0C03C360036A02FA7E
:102E500001F123EA01020262026AB0F1804F41EA05
:102E6000020101620BD044F20001C4F20101884268
:102E700005D042F60041C4F2010188420DD18168BB
:102E80000722C0F20102114006294FF000023FF470
:102E90007FAFB1F5803F3FF47BAF0168002241F086
:102EA00001010160104680BDF0B581B004460068A4
:102EB000C5680669B10717D515F0020114D06FF087
:102EC00002010161012121778069800704D0204639
:102ED000FFF77EFB06E000BF204600F09BF820468F
:102EE00000F09AF800202077700719D515F004003B
:102EF00016D020686FF004010161022121778069FA
:102F000010F4407F04D02046FFF762FB06E000BFCC
:102F1000204600F07FF8204600F07EF80020207761
:102F2000300717D515F0080014D020686FF008019D
:102F3000016104212177C069800703D02046FFF793
:102F400047FB05E0204600F065F8204600F064F8F5
:102F500000202077F00619D515F0100016D0206853
:102F60006FF01001016108212177C06910F4407FE2
:102F700004D02046FFF72CFB06E000BF204600F0FF
:102F800049F8204600F048F800202077F00718BFE5
:102F900015F0010006D020686FF0010101612046A4
:102FA00000F03CF816F4025F05F0800718BF002F10
:102FB00002D1F00509D410E020686FF402510161DC
:102FC0002046FFF79BFAF00507D537B120686FF46C
:102FD000807101612046FFF78FFA700609D515F060
:102FE000400006D020686FF040010161204600F0EB
:102FF0005DF8B0060CD515F0200009D021686FF0FF
:10300000200220460A6101B0BDE8F040FFF778BA1F
:1030100001B0F0BD70470000704700000068B0F1DB
:10302000804F18BF704740F27410C2F20000017860
:10303000002904BF0021A0F8011070474FEAB10138
:10304000032984BF00207047006800EB8100406BBB
:1030500070470000B0B5044690F83C0001284FF0DE
:10306000020008BFB0BD012584F83C5084F83D0043
:10307000204600F063FC00284FF0010006D000213C
:1030800084F83D5084F83C10B0BD00BF2068C16892
:1030900021F04001C160C16821F48041C16000207D
:1030A000002184F83D5084F83C10B0BD704700000A
:1030B00070470000704700007047000070B501685D
:1030C00040F62F03CA690E688C681340202B06F067
:1030D000200E07D1BEF1000F04D0816E41B3BDE8D0
:1030E0007040084740F60F031A4209D040F22013FF
:1030F000C0F2004304F0010C334013EB0C0325D164
:10310000036ED50616D5012B14D116F0100311D07D
:1031100010220A628968490630D4B0F85810B0F815
:103120005A20B0F85A30002B18BF914240F0448228
:1031300070BD00BFD30213D514F4800310D04FF438
:1031400080120A62BDE87040FFF7B4BFD30718BF12
:1031500016F4807340F0D280930700F1D980E2E04A
:10316000110640F1E18116F0800100F0DD81C16EB1
:103170000029DDD0BDE87040084700BF416F0A68F4
:103180005368B0F8584099B2002900F00382A14278
:1031900080F00082A0F85A301168890600F1A18001
:1031A000016851E8001F026821F4807142E80013B1
:1031B000DBB1016851E8001F026821F4807142E828
:1031C000001393B1016851E8001F026821F4807177
:1031D00042E800134BB1016851E8001F026821F476
:1031E000807142E80013002BDAD1016851E8021F18
:1031F000026821F0010142E80213C3B3016851E8FB
:10320000021F026821F0010142E802137BB301684A
:1032100051E8021F026821F0010142E8021333B3B2
:10322000016851E8021F026821F0010142E802131F
:10323000002BDAD11BE000BF016851E8021F0268D1
:1032400021F0400142E80213DBB1016851E8021F9E
:10325000026821F0400142E8021393B1016851E88D
:10326000021F026821F0400142E802134BB10168DD
:1032700051E8021F026821F0400142E80213002BCE
:10328000DAD12021C0F8801000210166016851E8E0
:10329000001F026821F0100142E80013DBB1016851
:1032A00051E8001F026821F0100142E8001393B1B9
:1032B000016851E8001F026821F0100142E8001384
:1032C0004BB1016851E8001F026821F0100142E88B
:1032D0000013002BDAD1416F04460846FDF7D8FFF2
:1032E000204602214166B0F85810B0F85A20891AD9
:1032F00089B2BDE87040FFF7DBBE00BF01230B625F
:10330000D0F8843043F00103C0F8843093070AD525
:10331000BCF1000F07D002230B62D0F8843043F0D9
:103320000403C0F8843053070AD5BCF1000F07D05E
:1033300004230B62D0F8843043F00203C0F88430D9
:1033400013070AD55CEA0E0307D008230B62D0F8F6
:10335000843043F00803C0F8843013050BD516F011
:10336000806308D04FF400630B62D0F8843043F0E0
:103370002003C0F88430D0F88430002B3FF4D8AE5E
:10338000920608D5BEF1000F05D0826E1AB1044630
:10339000904721682046D0F88420896802F02802EE
:1033A00001F04001891807D10446FFF785FE00208F
:1033B000C4F8840070BD00BF016851E8001F0268B6
:1033C00021F4907142E80013BBB3016851E8001F7B
:1033D000026821F4907142E8001373B3016851E868
:1033E000001F026821F4907142E800132BB30168BA
:1033F00051E8001F026821F4907142E80013002B8D
:10340000DAD11AE0016851E8021F026821F00101D7
:1034100042E80213DBB1016851E8021F026821F0A3
:10342000010142E8021393B1016851E8021F0268EA
:1034300021F0010142E802134BB1016851E8021F7B
:10344000026821F0010142E80213002BDAD1016E7B
:10345000012924D1016851E8001F026821F0100100
:1034600042E80013DBB1016851E8001F026821F057
:10347000100142E8001393B1016851E8001F02688F
:1034800021F0100142E800134BB1016851E8001F20
:10349000026821F0100142E80013002BDAD120214C
:1034A000C0F88010002101660268816691684906B3
:1034B00040F17E80016851E8021F026821F040015E
:1034C00042E80213DBB1016851E8021F026821F0F3
:1034D000400142E8021393B1016851E8021F0268FB
:1034E00021F0400142E802134BB1016851E8021F8C
:1034F000026821F0400142E80213002BDAD1416F4B
:10350000002955D043F6DD42C0F6000204460846C5
:103510008A63FDF7E7FE00283FF40AAE606F816B17
:10352000BDE87040084700BF51067FF501AE16F0B8
:10353000400108BF70BD00BF016851E8001F02686C
:1035400021F0400142E80013DBB1016851E8001F9F
:10355000026821F0400142E8001393B1016851E88C
:10356000001F026821F0400142E800134BB10168DE
:1035700051E8001F026821F0400142E80013002BCF
:10358000DAD12021C1670021C166BDE8704000F09A
:1035900013B900BF8C427FF4CBAD126892067FF561
:1035A000C7AD02224266BDE87040FFF781BD00BF93
:1035B000BDE87040FFF780BD891A00BF026852E87D
:1035C000002F036822F4907243E80026BEB302681D
:1035D00052E8002F036822F4907243E8002676B385
:1035E000026852E8002F036822F4907243E8002634
:1035F0002EB3026852E8002F036822F4907243E869
:103600000026002EDAD11AE0026852E8022F036881
:1036100022F0010243E80226DEB1026852E8022FDE
:10362000036822F0010243E8022696B1026852E8DC
:10363000022F036822F0010243E802264EB102681D
:1036400052E8022F036822F0010243E80226002E0E
:10365000DAD12022C0F8802000220266826600BFF4
:10366000026852E8002F036822F0100243E80026A7
:10367000DEB1026852E8002F036822F0100243E82E
:10368000002696B1026852E8002F036822F010026B
:1036900043E800264EB1026852E8002F036822F08A
:1036A000100243E80026002EDAD1022289B24266D7
:1036B000BDE87040FFF7FCBC10B5C0B10446C06F58
:1036C00028B9002084F87800204600F025F824204E
:1036D000E0672068616A026822F00102026011B1AD
:1036E000204600F0D3F9204600F0FCFA10B101208A
:1036F00010BD00BF2168486820F490404860886889
:1037000020F02A008860086840F0010220460A6024
:10371000BDE8104000F02EBA10B59CB00446002061
:103720001B90CDE91900CDE9170002A80430502103
:10373000FCF7D9FF206844F20041C4F2000188423E
:1037400002D01CB010BD00BF022402A80294FDF7F5
:10375000D1FF002818BFFDF795FD41F24C00C4F2DF
:103760000200C16841F40031C160C16801F4003158
:1037700001910199016841F001010160006817A9F8
:1037800000F001000190019848F20400CDE917040F
:103790000020199003201A9007201B904FF09040B2
:1037A000FDF7CAFD262000210022FDF719FF262083
:1037B000FDF704FF1CB010BD70470000FEE70000DD
:1037C000FEE70000FEE7000070470000F0B581B0A2
:1037D00041F20005C4F20205EA68920714D0EA68D3
:1037E000036802F003029A424FF0010208D13BB194
:1037F000EA684368C2F3021201329A422AD00122D7
:10380000104601B0F0BD00BF0268032A10D0022AA2
:1038100006D0012A07D12B689B0710D403E000BF14
:103820002B685B050BD40122104601B0F0BD00BF30
:103830002B689B035CBF2B685FEA4333F3D5EB68CF
:1038400047686FF00F0623F0730306EB07173B433F
:103850001A43EA60064628680F4620F08060286018
:10386000FDF746FE044600BF2868000108D5FDF7B5
:103870003FFE001B0228F7D90322104601B0F0BD1D
:103880002969B0683246012F4FEA002008D0BFB93D
:1038900048F2FF03D268C0F2FF731940D2061BE062
:1038A00048F2FF03CFF6FF1303F1B4631940126926
:1038B0000023CFF6E07303EA0252A2F500120BE0F8
:1038C00048F2FF03CFF6FF13526919404FF07E43D1
:1038D00003EA026202F17E4208431043286128682D
:1038E00040F080602860FDF703FE04462868000170
:1038F00008D4FDF7FDFD001B0228F7D9032210466E
:1039000001B0F0BDB0692969002208432861104662
:1039100001B0F0BD70470000FDF7F0BD4EF68850D5
:10392000CEF20000016841F47001016070470000B0
:1039300040F2C010C2F20000FFF7B6BA80B5D0F86E
:1039400000C04FF68872DCF80800CFF6FE72D1E9AD
:1039500000E3104070321A4010434FEA331240EA3D
:103960000E00072ACCF808000BD80020DFE802F090
:1039700004040404061C500C80BD00BFBEF1050FFA
:103980006ED1012080BD00BFD1E902020969DCF8D7
:103990000830104323F47F4340EA01201843CCF859
:1039A0000800002080BD00BFD1F808E00969DCF8FC
:1039B0002030DCF8202042F60040C4F201008445AB
:1039C00022F00100CCF820000BD044F20040C4F2F9
:1039D0000100844505D044F20000C4F20100844592
:1039E00005D1DCF8200020F00400CCF82000DCF841
:1039F000180020F0F00040EA011023F00A0141EA2B
:103A00000E01CCF818000020CCF8201080BD00BFBB
:103A1000D1F808E00969DCF82030DCF8202042F613
:103A20000040C4F20100844522F01000CCF82000D0
:103A300005D1DCF8200020F04000CCF82000DCF8B4
:103A4000180020F4704040EA013023F0A00141EA60
:103A50000E11CCF818000020CCF8201080BD00BF5B
:103A6000DCF82000DCF8202022F00102CCF8202035
:103A7000DCF81820096922F0F00242EA0111CCF8C2
:103A80001810CCF82000002080BD0000416A0A0711
:103A90000CD4CA0715D18A071ED44A0727D4CA06F0
:103AA00030D48A0639D44A0642D457E00268D0F8A6
:103AB00034C0536823F4004343EA0C035360CA073D
:103AC000E9D00268D0F828C0536823F4003343EAF1
:103AD0000C0353608A07E0D50268D0F82CC0536805
:103AE00023F4803343EA0C0353604A07D7D50268B6
:103AF000D0F830C0536823F4802343EA0C035360AA
:103B0000CA06CED50268D0F838C0936823F4805333
:103B100043EA0C0393608A06C5D50268D0F83CC01E
:103B2000936823F4005343EA0C0393604A0615D5C7
:103B3000D0F800C0036CDCF80420B3F5801F22F439
:103B4000801242EA0302CCF8042007D1DCF80420FA
:103B5000436C22F4C0021A43CCF80420090658BF73
:103B600070470168806C4A6822F400221043486064
:103B700070470000B0B582B004460020C4F884004D
:103B8000FDF7B6FC216805460A68120737D56FF0C5
:103B90007E4C20464FF4001100222B46CDF800C089
:103BA00000F0A0F950B300BF206850E8000F216872
:103BB00020F0800041E80002DAB1206850E8000FF0
:103BC000216820F0800041E8000292B1206850E8AE
:103BD000000F216820F0800041E800024AB120680F
:103BE00050E8000F216820F0800041E80002002A20
:103BF000DAD1032020217C226AE000BF2168086816
:103C000040075DD56FF07E4C20464FF480010022C6
:103C10002B46CDF800C000F065F9002850D000BF59
:103C2000206850E8000F216820F4907041E80002FD
:103C3000BAB3206850E8000F216820F4907041E882
:103C4000000272B3206850E8000F216820F49070E1
:103C500041E800022AB3206850E8000F216820F4F0
:103C6000907041E80002002ADAD11AE0206850E89A
:103C7000020F216820F0010041E80202DAB1206859
:103C800050E8020F216820F0010041E8020292B1E1
:103C9000206850E8020F216820F0010041E802028C
:103CA0004AB1206850E8020F216820F0010041E885
:103CB0000202002ADAD103202021802208E000BF7E
:103CC0002020E067C4F880000021642200202166E3
:103CD000A150002184F8781002B0B0BD806AFFF7CF
:103CE000EBB90000B0B5054605F108041ECC00682C
:103CF000194341EA0403D5F81CE0046846F6F311C1
:103D0000CEF6FF712140194341EA0E01016041687E
:103D100048F2000C21F4405111434160AA69C4F2F9
:103D2000000C60451CBF296A0A43816821F4306198
:103D3000114344F20042C4F200029042816017D065
:103D400060450DD043F60001C4F2010188424BD119
:103D500041F28801C4F202010B685EA212E000BFCA
:103D600041F28801C4F2020109688B0A06E000BF33
:103D700041F28801C4F2020109688B0844F2A4529E
:103D8000C0F6000203F0030152F82130604542F210
:103D90000040C0F2F4002ED0BEF5004F12D1082B27
:103DA0004FF0010100F29180DFE803F00656688FC2
:103DB0005E8F8F8F660000BFFDF7FEFE002840F08B
:103DC0005D807EE0082B4FF0010100F27E80DFE88D
:103DD00003F005476B7C4F7C7C7C6900FDF7ECFEB3
:103DE000002861D16DE000BF1023604542F2004021
:103DF000C0F2F400D0D1082B4FF0010165D8DFE804
:103E000003F005640F64096464640D00FDF7D4FEDB
:103E100030B956E0FDF7FCFE10B952E04FF4004017
:103E20006A6802EB420188424FF001014DD313034F
:103E300098424AD8010E000210EB520041F10001F5
:103E40000023FCF739FA4FF60052A0F54071C0F29A
:103E50000F02914233D337E0FDF7C4FE70B930E072
:103E6000FDF7C0FE00BB2CE0FDF7D2FE30B928E024
:103E7000FDF7CEFEC0B924E04FF4004069684A085F
:103E800002EB4000B0FBF1F04FF6EF72A0F1100131
:103E9000914219D84FF6F0710140C0F34200084436
:103EA0000DE000BF4FF4004069684FF6EF7200EB81
:103EB0005100B0FBF1F0A0F11001914204D8296843
:103EC000C860002101E000BF012100220846AA6667
:103ED000EA66B0BD0100000004000000020000001E
:103EE000080000002DE9F041804600681546C269CF
:103EF0000E461140891BB1FA81F14909A94223D12B
:103F0000069C2CB3611C29D1C1693140891BB1FACF
:103F100081F14909A94217D1C1693140891BB1FA20
:103F200081F14909A9420FD1C1693140891BB1FA18
:103F300081F14909A94207D1C1693140891BB1FA10
:103F400081F14909A942DFD00020BDE8F08100BF1E
:103F5000FDF7CEFA0320BDE8F08100BF1F4607E061
:103F6000C0693040801BB0FA80F04009A842EBD114
:103F7000FDF7BEFAC01BA04200F2B080D8F80000E6
:103F800001684907ECD5402EEAD0802EE8D0C169FF
:103F9000090700F1A780C1690905E1D54FF4006167
:103FA0000162D8F8000050E8000FD8F8001020F4A3
:103FB000907041E80002002A43D0D8F8000050E891
:103FC000000FD8F8001020F4907041E80002C2B34E
:103FD000D8F8000050E8000FD8F8001020F49070D6
:103FE00041E800026AB3D8F8000050E8000FD8F8A2
:103FF000001020F4907041E80002002AD1D120E0A6
:10400000D8F8000050E8020FD8F8001020F00100A6
:1040100041E802020AB3D8F8000050E8020FD8F8CD
:10402000001020F0010041E80202B2B1D8F800000F
:1040300050E8020FD8F8001020F0010041E8020219
:104040005AB1D8F8000050E8020FD8F8001020F05C
:10405000010041E80202002AD2D1D8F8600001280C
:104060002CD1D8F8000050E8000FD8F8001020F04C
:10407000100041E800020AB3D8F8000050E8000F31
:10408000D8F8001020F0100041E80002B2B1D8F8D2
:10409000000050E8000FD8F8001020F0100041E8B0
:1040A00000025AB1D8F8000050E8000FD8F800100C
:1040B00020F0100041E80002002AD2D12020002187
:1040C000C8F88000C8F86010C8F86810C8F8840004
:1040D000032088F87810BDE8F08100BF0320BDE818
:1040E000F08100BF08210162D8F8000050E8000FFD
:1040F000D8F8001020F4907041E80002002A44D063
:10410000D8F8000050E8000FD8F8001020F49070A4
:1041100041E80002CAB3D8F8000050E8000FD8F810
:10412000001020F4907041E8000272B3D8F800004B
:1041300050E8000FD8F8001020F4907041E8000219
:10414000002AD1D121E000BFD8F8000050E8020FCA
:10415000D8F8001020F0010041E802020AB3D8F8B4
:10416000000050E8020FD8F8001020F0010041E8EC
:104170000202B2B1D8F8000050E8020FD8F80010DF
:1041800020F0010041E802025AB1D8F8000050E8DE
:10419000020FD8F8001020F0010041E80202002AC6
:1041A000D2D1D8F8600001282CD1D8F8000050E80E
:1041B000000FD8F8001020F0100041E800020AB308
:1041C000D8F8000050E8000FD8F8001020F01000D8
:1041D00041E80002B2B1D8F8000050E8000FD8F86A
:1041E000001020F0100041E800025AB1D8F8000099
:1041F00050E8000FD8F8001020F0100041E800024D
:10420000002AD2D12020C8F8800000200821C8F858
:104210006000C8F86800C8F8841088F878000120A9
:10422000BDE8F08140F20C20C2F20000FEF746BF6C
:10423000FEE700009AB0FDF76FF906A804304021B0
:10424000FCF751FA4FF40070FDF706FA20B1EFF3D6
:10425000108072B6FEE700BF1020069001200C907F
:10426000602000250E9006A80D951095FDF734FDF1
:1042700020B1EFF3108072B6FEE700BF0F2401A853
:104280000021CDE90145CDE903550595FDF774FB06
:1042900020B1EFF3108072B6FEE700BF41F24C0090
:1042A000C4F2020001684FF0804241F00101016058
:1042B0000068002100F001000690069840F2C0104E
:1042C000C2F2000040F6736309911891C0E900241E
:1042D000C0E9021301618161FEF78CFC20B1EFF3AC
:1042E000108072B6FEE700BF0420069050200790B1
:1042F0000220089003200A9040F2C010C2F2000091
:1043000006A9FEF7A7FE28B1EFF3108072B600BF32
:10431000FEE700BF40F2C0100024C2F2000017A95F
:1043200017941994FEF7EEF820B1EFF3108072B6EF
:10433000FEE700BF0120CDE902040320049040F213
:10434000C0100225C2F2000001A900220195FEF76B
:1043500071FB28B1EFF3108072B600BFFEE700BF1B
:1043600040F2C0100024C2F2000001A90422CDE9ED
:104370000145FEF75FFB28B1EFF3108072B600BF76
:10438000FEE700BF40F20C2044F20041C2F2000000
:10439000C4F200010C234FF4E13280E81600C0E9BA
:1043A0000344C0E90534C0E907444462FFF784F9D7
:1043B00020B1EFF3108072B6FEE700BF40F26C0050
:1043C000C2F2000000214FF4806200230024FCF7B9
:1043D0003DF940F2741540F2C010C2F20005C2F27D
:1043E00000000021A5F80140FEF7B4FC20B1EFF376
:1043F000108072B6FEE700BF40F2C010C2F20000AB
:104400000421FEF7A7FC18B1EFF3108072B6FEE7A7
:1044100040F2C010C2F20000FEF7AAF820B1EFF39C
:10442000108072B6FEE700BF08A0FCF7F9F80CA7F1
:10443000002628780028FCD0A9882C7A6A7AAB7AE2
:1044400038460094FBF7B0FF2E70F2E75243352058
:1044500072656365697665722072656164790D00C5
:104460005B5243355D205261773A203078253034F5
:1044700058207C20416464723A20307825303258CC
:10448000207C20436D643A20307825303258207CDF
:1044900020546F67676C653A2025640D0A000000A0
:1044A00030380A2801D201207047002070478A68FE
:1044B000002A02DC0022FCF78BBA521E8A604A688E
:1044C000C0B2531C4B6010707047F1EE100A4FF6EB
:1044D000FF71C0F2C03120EA010040F04070E1EE0F
:1044E000100A70473031323334353637383941426B
:1044F0004344454640305800303132333435363746
:1045000038396162636465664030780004000008F1
:10451000000000000000000200010000103A747466
:10452000003A7474003A7474000000000000000047
:10453000000102030406070809000000000102034D
:1045400004000000A0860100400D0300801A060050
:1045500000350C0040420F0080841E0000093D0021
:1045600000127A000024F40000366E010048E801D1
:10457000006CDC02020000000400000008000000E3
:1045800010000000FDFFFFFFFBFFFFFFF7FFFFFF35
:10459000EFFFFFFFFFFDFFFFFFFBFFFFFFF7FFFF49
:1045A000FFEFFFFF00000000040000000200000019
:1045B00008000000D8450008000000201800000096
:1045C000F0010008F04500081800002080080000F5
:1045D00010020008000000000000000000000000C1
:1045E00000000000010000001000000000093D0074
:040000050800018D61
:00000001FF
